{
  "_format": "hh-sol-artifact-1",
  "contractName": "GeographicManagement",
  "sourceName": "contracts/1_GeographicManagement.sol",
  "abi": [
    {
      "inputs": [
        {
          "internalType": "address",
          "name": "_votingMachine",
          "type": "address"
        }
      ],
      "stateMutability": "nonpayable",
      "type": "constructor"
    },
    {
      "anonymous": false,
      "inputs": [
        {
          "indexed": true,
          "internalType": "string",
          "name": "province",
          "type": "string"
        },
        {
          "indexed": true,
          "internalType": "string",
          "name": "constituency",
          "type": "string"
        }
      ],
      "name": "ConstituencyAdded",
      "type": "event"
    },
    {
      "anonymous": false,
      "inputs": [
        {
          "indexed": true,
          "internalType": "string",
          "name": "province",
          "type": "string"
        },
        {
          "indexed": true,
          "internalType": "string",
          "name": "constituency",
          "type": "string"
        }
      ],
      "name": "ConstituencyRemoved",
      "type": "event"
    },
    {
      "anonymous": false,
      "inputs": [
        {
          "indexed": true,
          "internalType": "string",
          "name": "province",
          "type": "string"
        }
      ],
      "name": "ProvinceAdded",
      "type": "event"
    },
    {
      "anonymous": false,
      "inputs": [
        {
          "indexed": true,
          "internalType": "string",
          "name": "province",
          "type": "string"
        }
      ],
      "name": "ProvinceRemoved",
      "type": "event"
    },
    {
      "inputs": [
        {
          "internalType": "string",
          "name": "_province",
          "type": "string"
        },
        {
          "internalType": "string",
          "name": "_constituency",
          "type": "string"
        }
      ],
      "name": "addConstituency",
      "outputs": [],
      "stateMutability": "nonpayable",
      "type": "function"
    },
    {
      "inputs": [
        {
          "internalType": "string",
          "name": "_province",
          "type": "string"
        }
      ],
      "name": "addProvince",
      "outputs": [],
      "stateMutability": "nonpayable",
      "type": "function"
    },
    {
      "inputs": [],
      "name": "admin",
      "outputs": [
        {
          "internalType": "address",
          "name": "",
          "type": "address"
        }
      ],
      "stateMutability": "view",
      "type": "function"
    },
    {
      "inputs": [
        {
          "internalType": "string",
          "name": "",
          "type": "string"
        },
        {
          "internalType": "uint256",
          "name": "",
          "type": "uint256"
        }
      ],
      "name": "constituenciesByProvince",
      "outputs": [
        {
          "internalType": "string",
          "name": "",
          "type": "string"
        }
      ],
      "stateMutability": "view",
      "type": "function"
    },
    {
      "inputs": [],
      "name": "getCounts",
      "outputs": [
        {
          "internalType": "uint256",
          "name": "provinceCount",
          "type": "uint256"
        },
        {
          "internalType": "uint256",
          "name": "constituencyCount",
          "type": "uint256"
        }
      ],
      "stateMutability": "view",
      "type": "function"
    },
    {
      "inputs": [
        {
          "internalType": "string",
          "name": "",
          "type": "string"
        },
        {
          "internalType": "string",
          "name": "",
          "type": "string"
        }
      ],
      "name": "isConstituencyAdded",
      "outputs": [
        {
          "internalType": "bool",
          "name": "",
          "type": "bool"
        }
      ],
      "stateMutability": "view",
      "type": "function"
    },
    {
      "inputs": [
        {
          "internalType": "string",
          "name": "",
          "type": "string"
        }
      ],
      "name": "isProvinceAdded",
      "outputs": [
        {
          "internalType": "bool",
          "name": "",
          "type": "bool"
        }
      ],
      "stateMutability": "view",
      "type": "function"
    },
    {
      "inputs": [
        {
          "internalType": "uint256",
          "name": "",
          "type": "uint256"
        }
      ],
      "name": "provinces",
      "outputs": [
        {
          "internalType": "string",
          "name": "",
          "type": "string"
        }
      ],
      "stateMutability": "view",
      "type": "function"
    },
    {
      "inputs": [
        {
          "internalType": "string",
          "name": "_province",
          "type": "string"
        },
        {
          "internalType": "string",
          "name": "_constituency",
          "type": "string"
        }
      ],
      "name": "removeConstituency",
      "outputs": [],
      "stateMutability": "nonpayable",
      "type": "function"
    },
    {
      "inputs": [
        {
          "internalType": "string",
          "name": "_province",
          "type": "string"
        }
      ],
      "name": "removeProvince",
      "outputs": [],
      "stateMutability": "nonpayable",
      "type": "function"
    },
    {
      "inputs": [
        {
          "internalType": "string",
          "name": "_province",
          "type": "string"
        }
      ],
      "name": "viewConstituenciesByProvince",
      "outputs": [
        {
          "internalType": "string[]",
          "name": "",
          "type": "string[]"
        }
      ],
      "stateMutability": "view",
      "type": "function"
    },
    {
      "inputs": [],
      "name": "viewProvinces",
      "outputs": [
        {
          "internalType": "string[]",
          "name": "",
          "type": "string[]"
        }
      ],
      "stateMutability": "view",
      "type": "function"
    }
  ],
  "bytecode": "0x608060405234801561001057600080fd5b5060405161156238038061156283398101604081905261002f91610054565b600080546001600160a01b0319166001600160a01b0392909216919091179055610084565b60006020828403121561006657600080fd5b81516001600160a01b038116811461007d57600080fd5b9392505050565b6114cf806100936000396000f3fe608060405234801561001057600080fd5b50600436106100b45760003560e01c8063a537389911610071578063a5373899146101a8578063a93c8aa3146101c5578063d9040cdb146101d8578063da87c08f146101eb578063f7ef0f29146101fe578063f851a4401461021157600080fd5b806316d2e8c4146100b95780633181494b146100e2578063416c86ca14610120578063655016c2146101405780636ba4513d1461018b5780637b1bb7b4146101a0575b600080fd5b6100cc6100c7366004610f0f565b61023c565b6040516100d99190610fa4565b60405180910390f35b6101106100f0366004610fbe565b805160208183018101805160028252928201919093012091525460ff1681565b60405190151581526020016100d9565b61013361012e366004610fbe565b610304565b6040516100d99190610ffb565b61011061014e36600461105d565b8151602081840181018051600482529282019482019490942091909352815180830184018051928152908401929093019190912091525460ff1681565b61019e61019936600461105d565b610443565b005b6101336106a4565b6101b061077d565b604080519283526020830191909152016100d9565b61019e6101d3366004610fbe565b6107f4565b61019e6101e636600461105d565b61098c565b61019e6101f9366004610fbe565b610bbc565b6100cc61020c3660046110c1565b610deb565b600054610224906001600160a01b031681565b6040516001600160a01b0390911681526020016100d9565b8151602081840181018051600382529282019185019190912091905280548290811061026757600080fd5b90600052602060002001600091509150508054610283906110da565b80601f01602080910402602001604051908101604052809291908181526020018280546102af906110da565b80156102fc5780601f106102d1576101008083540402835291602001916102fc565b820191906000526020600020905b8154815290600101906020018083116102df57829003601f168201915b505050505081565b60606002826040516103169190611114565b9081526040519081900360200190205460ff1661034e5760405162461bcd60e51b815260040161034590611130565b60405180910390fd5b60038260405161035e9190611114565b9081526020016040518091039020805480602002602001604051908101604052809291908181526020016000905b828210156104385783829060005260206000200180546103ab906110da565b80601f01602080910402602001604051908101604052809291908181526020018280546103d7906110da565b80156104245780601f106103f957610100808354040283529160200191610424565b820191906000526020600020905b81548152906001019060200180831161040757829003601f168201915b50505050508152602001906001019061038c565b505050509050919050565b6000546001600160a01b0316331461046d5760405162461bcd60e51b815260040161034590611167565b60048260405161047d9190611114565b9081526020016040518091039020816040516104999190611114565b9081526040519081900360200190205460ff166104f85760405162461bcd60e51b815260206004820152601b60248201527f436f6e7374697475656e637920646f6573206e6f7420657869737400000000006044820152606401610345565b600060048360405161050a9190611114565b9081526020016040518091039020826040516105269190611114565b908152604051908190036020018120805492151560ff1990931692909217909155600090600390610558908590611114565b9081526020016040518091039020905060005b815481101561064a57828051906020012082828154811061058e5761058e6111a9565b906000526020600020016040516105a59190611232565b60405180910390200361063857815482906105c290600190611254565b815481106105d2576105d26111a9565b906000526020600020018282815481106105ee576105ee6111a9565b90600052602060002001908161060491906112bc565b50818054806106155761061561139d565b6001900381819060005260206000200160006106319190610e16565b905561064a565b80610642816113b3565b91505061056b565b50816040516106599190611114565b60405180910390208360405161066f9190611114565b604051908190038120907f88f397734447afed07162c4ce95e3455f392ce1c087d875324a08a9bffe4d71e90600090a3505050565b60606001805480602002602001604051908101604052809291908181526020016000905b828210156107745783829060005260206000200180546106e7906110da565b80601f0160208091040260200160405190810160405280929190818152602001828054610713906110da565b80156107605780601f1061073557610100808354040283529160200191610760565b820191906000526020600020905b81548152906001019060200180831161074357829003601f168201915b5050505050815260200190600101906106c8565b50505050905090565b6000806000805b6001548110156107e8576003600182815481106107a3576107a36111a9565b906000526020600020016040516107ba9190611232565b908152604051908190036020019020546107d490836113cc565b9150806107e0816113b3565b915050610784565b50600154939092509050565b6000546001600160a01b0316331461081e5760405162461bcd60e51b815260040161034590611167565b600081511161086f5760405162461bcd60e51b815260206004820152601d60248201527f50726f76696e6365206e616d652063616e6e6f7420626520656d7074790000006044820152606401610345565b60028160405161087f9190611114565b9081526040519081900360200190205460ff16156108df5760405162461bcd60e51b815260206004820152601760248201527f50726f76696e636520616c7265616479206578697374730000000000000000006044820152606401610345565b6001805480820182556000919091527fb10e2d527612073b26eecdfd717e6a320cf44b4afac2b0732d9fcbe2b7fa0cf60161091a82826113df565b50600160028260405161092d9190611114565b908152604051908190036020018120805492151560ff1990931692909217909155610959908290611114565b604051908190038120907f5e39af6d3ca910ced99011eb5d2569c15bc94d68c31b86e4861e345b1c36796990600090a250565b6000546001600160a01b031633146109b65760405162461bcd60e51b815260040161034590611167565b6002826040516109c69190611114565b9081526040519081900360200190205460ff166109f55760405162461bcd60e51b815260040161034590611130565b6000815111610a505760405162461bcd60e51b815260206004820152602160248201527f436f6e7374697475656e6379206e616d652063616e6e6f7420626520656d70746044820152607960f81b6064820152608401610345565b600482604051610a609190611114565b908152602001604051809103902081604051610a7c9190611114565b9081526040519081900360200190205460ff1615610adc5760405162461bcd60e51b815260206004820152601b60248201527f436f6e7374697475656e637920616c72656164792065786973747300000000006044820152606401610345565b600382604051610aec9190611114565b908152604051602091819003820190208054600181018255600091825291902001610b1782826113df565b506001600483604051610b2a9190611114565b908152602001604051809103902082604051610b469190611114565b908152604051908190036020018120805492151560ff1990931692909217909155610b72908290611114565b604051809103902082604051610b889190611114565b604051908190038120907f4edceca66fd3f9a694e7bf4846f3b1d0452e220762fb7fb052f67d4287d7953490600090a35050565b6000546001600160a01b03163314610be65760405162461bcd60e51b815260040161034590611167565b600281604051610bf69190611114565b9081526040519081900360200190205460ff16610c255760405162461bcd60e51b815260040161034590611130565b600381604051610c359190611114565b9081526040519081900360200190205415610c925760405162461bcd60e51b815260206004820152601f60248201527f52656d6f766520616c6c20636f6e7374697475656e63696573206669727374006044820152606401610345565b6000600282604051610ca49190611114565b908152604051908190036020019020805491151560ff1990921691909117905560005b600154811015610da957818051906020012060018281548110610cec57610cec6111a9565b90600052602060002001604051610d039190611232565b604051809103902003610d975760018054610d1f908290611254565b81548110610d2f57610d2f6111a9565b9060005260206000200160018281548110610d4c57610d4c6111a9565b906000526020600020019081610d6291906112bc565b506001805480610d7457610d7461139d565b600190038181906000526020600020016000610d909190610e16565b9055610da9565b80610da1816113b3565b915050610cc7565b5080604051610db89190611114565b604051908190038120907f8553bc93bfb6920e9b66e0ee9c45f122f082e3065837c509cd9635ce9854903990600090a250565b60018181548110610dfb57600080fd5b906000526020600020016000915090508054610283906110da565b508054610e22906110da565b6000825580601f10610e32575050565b601f016020900490600052602060002090810190610e509190610e53565b50565b5b80821115610e685760008155600101610e54565b5090565b634e487b7160e01b600052604160045260246000fd5b600082601f830112610e9357600080fd5b813567ffffffffffffffff80821115610eae57610eae610e6c565b604051601f8301601f19908116603f01168101908282118183101715610ed657610ed6610e6c565b81604052838152866020858801011115610eef57600080fd5b836020870160208301376000602085830101528094505050505092915050565b60008060408385031215610f2257600080fd5b823567ffffffffffffffff811115610f3957600080fd5b610f4585828601610e82565b95602094909401359450505050565b60005b83811015610f6f578181015183820152602001610f57565b50506000910152565b60008151808452610f90816020860160208601610f54565b601f01601f19169290920160200192915050565b602081526000610fb76020830184610f78565b9392505050565b600060208284031215610fd057600080fd5b813567ffffffffffffffff811115610fe757600080fd5b610ff384828501610e82565b949350505050565b6000602080830181845280855180835260408601915060408160051b870101925083870160005b8281101561105057603f1988860301845261103e858351610f78565b94509285019290850190600101611022565b5092979650505050505050565b6000806040838503121561107057600080fd5b823567ffffffffffffffff8082111561108857600080fd5b61109486838701610e82565b935060208501359150808211156110aa57600080fd5b506110b785828601610e82565b9150509250929050565b6000602082840312156110d357600080fd5b5035919050565b600181811c908216806110ee57607f821691505b60208210810361110e57634e487b7160e01b600052602260045260246000fd5b50919050565b60008251611126818460208701610f54565b9190910192915050565b60208082526017908201527f50726f76696e636520646f6573206e6f74206578697374000000000000000000604082015260600190565b60208082526022908201527f4f6e6c792061646d696e2063616e20706572666f726d2074686973206163746960408201526137b760f11b606082015260800190565b634e487b7160e01b600052603260045260246000fd5b600081546111cc816110da565b600182811680156111e457600181146111f957611228565b60ff1984168752821515830287019450611228565b8560005260208060002060005b8581101561121f5781548a820152908401908201611206565b50505082870194505b5050505092915050565b6000610fb782846111bf565b634e487b7160e01b600052601160045260246000fd5b818103818111156112675761126761123e565b92915050565b601f8211156112b757600081815260208120601f850160051c810160208610156112945750805b601f850160051c820191505b818110156112b3578281556001016112a0565b5050505b505050565b8181036112c7575050565b6112d182546110da565b67ffffffffffffffff8111156112e9576112e9610e6c565b6112fd816112f784546110da565b8461126d565b6000601f82116001811461133157600083156113195750848201545b600019600385901b1c1916600184901b178455611396565b600085815260209020601f19841690600086815260209020845b8381101561136b578286015482556001958601959091019060200161134b565b50858310156113895781850154600019600388901b60f8161c191681555b50505060018360011b0184555b5050505050565b634e487b7160e01b600052603160045260246000fd5b6000600182016113c5576113c561123e565b5060010190565b808201808211156112675761126761123e565b815167ffffffffffffffff8111156113f9576113f9610e6c565b611407816112f784546110da565b602080601f83116001811461143c57600084156114245750858301515b600019600386901b1c1916600185901b1785556112b3565b600085815260208120601f198616915b8281101561146b5788860151825594840194600190910190840161144c565b50858210156114895787850151600019600388901b60f8161c191681555b5050505050600190811b0190555056fea264697066735822122083d393473e870a4bcc1e7d5d915c27445768fa74711034250ce86b3b88df1b1164736f6c63430008120033",
  "linkReferences": {},
  "deployedLinkReferences": {}
}