{
  "_format": "hh-sol-artifact-1",
  "contractName": "PartyManagement",
  "sourceName": "contracts/2_PartyManagement.sol",
  "abi": [
    {
      "inputs": [
        {
          "internalType": "address",
          "name": "_votingMachine",
          "type": "address"
        }
      ],
      "stateMutability": "nonpayable",
      "type": "constructor"
    },
    {
      "anonymous": false,
      "inputs": [
        {
          "indexed": true,
          "internalType": "string",
          "name": "partyName",
          "type": "string"
        }
      ],
      "name": "PartyAdded",
      "type": "event"
    },
    {
      "anonymous": false,
      "inputs": [
        {
          "indexed": true,
          "internalType": "string",
          "name": "partyName",
          "type": "string"
        }
      ],
      "name": "PartyRemoved",
      "type": "event"
    },
    {
      "inputs": [
        {
          "internalType": "string",
          "name": "_partyName",
          "type": "string"
        }
      ],
      "name": "addParty",
      "outputs": [],
      "stateMutability": "nonpayable",
      "type": "function"
    },
    {
      "inputs": [],
      "name": "admin",
      "outputs": [
        {
          "internalType": "address",
          "name": "",
          "type": "address"
        }
      ],
      "stateMutability": "view",
      "type": "function"
    },
    {
      "inputs": [],
      "name": "getPartyCount",
      "outputs": [
        {
          "internalType": "uint256",
          "name": "",
          "type": "uint256"
        }
      ],
      "stateMutability": "view",
      "type": "function"
    },
    {
      "inputs": [
        {
          "internalType": "string",
          "name": "",
          "type": "string"
        }
      ],
      "name": "isPartyRegistered",
      "outputs": [
        {
          "internalType": "bool",
          "name": "",
          "type": "bool"
        }
      ],
      "stateMutability": "view",
      "type": "function"
    },
    {
      "inputs": [
        {
          "internalType": "uint256",
          "name": "",
          "type": "uint256"
        }
      ],
      "name": "parties",
      "outputs": [
        {
          "internalType": "string",
          "name": "",
          "type": "string"
        }
      ],
      "stateMutability": "view",
      "type": "function"
    },
    {
      "inputs": [
        {
          "internalType": "string",
          "name": "",
          "type": "string"
        }
      ],
      "name": "partyDetails",
      "outputs": [
        {
          "internalType": "string",
          "name": "name",
          "type": "string"
        },
        {
          "internalType": "bool",
          "name": "exists",
          "type": "bool"
        }
      ],
      "stateMutability": "view",
      "type": "function"
    },
    {
      "inputs": [
        {
          "internalType": "string",
          "name": "_partyName",
          "type": "string"
        }
      ],
      "name": "removeParty",
      "outputs": [],
      "stateMutability": "nonpayable",
      "type": "function"
    },
    {
      "inputs": [],
      "name": "viewParties",
      "outputs": [
        {
          "internalType": "string[]",
          "name": "",
          "type": "string[]"
        }
      ],
      "stateMutability": "view",
      "type": "function"
    }
  ],
  "bytecode": "0x608060405234801561001057600080fd5b50604051610e3b380380610e3b83398101604081905261002f91610054565b600080546001600160a01b0319166001600160a01b0392909216919091179055610084565b60006020828403121561006657600080fd5b81516001600160a01b038116811461007d57600080fd5b9392505050565b610da8806100936000396000f3fe608060405234801561001057600080fd5b50600436106100885760003560e01c806370651a181161005b57806370651a18146100f057806391bca87514610110578063b6d604ae14610125578063f851a4401461016357600080fd5b80635482785a1461008d5780635ae9e74c146100a25780635df3e271146100cc57806360b960e5146100df575b600080fd5b6100a061009b36600461084c565b61018e565b005b6100b56100b036600461084c565b6103b6565b6040516100c392919061094d565b60405180910390f35b6100a06100da36600461084c565b610468565b6001546040519081526020016100c3565b6101036100fe366004610971565b61065b565b6040516100c3919061098a565b610118610707565b6040516100c391906109a4565b61015361013336600461084c565b805160208183018101805160038252928201919093012091525460ff1681565b60405190151581526020016100c3565b600054610176906001600160a01b031681565b6040516001600160a01b0390911681526020016100c3565b6000546001600160a01b031633146101c15760405162461bcd60e51b81526004016101b890610a06565b60405180910390fd5b6003816040516101d19190610a48565b9081526040519081900360200190205460ff166102275760405162461bcd60e51b815260206004820152601460248201527314185c9d1e48191bd95cc81b9bdd08195e1a5cdd60621b60448201526064016101b8565b60006003826040516102399190610a48565b908152604051908190036020018120805492151560ff1990931692909217909155600290610268908390610a48565b908152604051908190036020019020600061028382826107e0565b50600101805460ff1916905560005b600154811015610374578180519060200120600182815481106102b7576102b7610a64565b906000526020600020016040516102ce9190610ab4565b60405180910390200361036257600180546102ea908290610b40565b815481106102fa576102fa610a64565b906000526020600020016001828154811061031757610317610a64565b90600052602060002001908161032d9190610ba8565b50600180548061033f5761033f610c89565b60019003818190600052602060002001600061035b91906107e0565b9055610374565b8061036c81610c9f565b915050610292565b50806040516103839190610a48565b604051908190038120907fefde6c8092c1eb8466743d58ee6112cbd220625dec3213f1445c9404e7fb832a90600090a250565b80516020818301810180516002825292820191909301209152805481906103dc90610a7a565b80601f016020809104026020016040519081016040528092919081815260200182805461040890610a7a565b80156104555780601f1061042a57610100808354040283529160200191610455565b820191906000526020600020905b81548152906001019060200180831161043857829003601f168201915b5050506001909301549192505060ff1682565b6000546001600160a01b031633146104925760405162461bcd60e51b81526004016101b890610a06565b60008151116104e35760405162461bcd60e51b815260206004820152601a60248201527f5061727479206e616d652063616e6e6f7420626520656d70747900000000000060448201526064016101b8565b6003816040516104f39190610a48565b9081526040519081900360200190205460ff16156105535760405162461bcd60e51b815260206004820152601860248201527f506172747920616c72656164792072656769737465726564000000000000000060448201526064016101b8565b6001805480820182556000919091527fb10e2d527612073b26eecdfd717e6a320cf44b4afac2b0732d9fcbe2b7fa0cf60161058e8282610cb8565b506040805180820182528281526001602082015290516002906105b2908490610a48565b908152604051908190036020019020815181906105cf9082610cb8565b50602091909101516001918201805460ff19169115159190911790556040516003906105fc908490610a48565b908152604051908190036020018120805492151560ff1990931692909217909155610628908290610a48565b604051908190038120907f4632f3a3551ffd73da26f49e84e2d47ed2e7304255f292ca21cab9a13722e9a890600090a250565b6001818154811061066b57600080fd5b90600052602060002001600091509050805461068690610a7a565b80601f01602080910402602001604051908101604052809291908181526020018280546106b290610a7a565b80156106ff5780601f106106d4576101008083540402835291602001916106ff565b820191906000526020600020905b8154815290600101906020018083116106e257829003601f168201915b505050505081565b60606001805480602002602001604051908101604052809291908181526020016000905b828210156107d757838290600052602060002001805461074a90610a7a565b80601f016020809104026020016040519081016040528092919081815260200182805461077690610a7a565b80156107c35780601f10610798576101008083540402835291602001916107c3565b820191906000526020600020905b8154815290600101906020018083116107a657829003601f168201915b50505050508152602001906001019061072b565b50505050905090565b5080546107ec90610a7a565b6000825580601f106107fc575050565b601f01602090049060005260206000209081019061081a919061081d565b50565b5b80821115610832576000815560010161081e565b5090565b634e487b7160e01b600052604160045260246000fd5b60006020828403121561085e57600080fd5b813567ffffffffffffffff8082111561087657600080fd5b818401915084601f83011261088a57600080fd5b81358181111561089c5761089c610836565b604051601f8201601f19908116603f011681019083821181831017156108c4576108c4610836565b816040528281528760208487010111156108dd57600080fd5b826020860160208301376000928101602001929092525095945050505050565b60005b83811015610918578181015183820152602001610900565b50506000910152565b600081518084526109398160208601602086016108fd565b601f01601f19169290920160200192915050565b6040815260006109606040830185610921565b905082151560208301529392505050565b60006020828403121561098357600080fd5b5035919050565b60208152600061099d6020830184610921565b9392505050565b6000602080830181845280855180835260408601915060408160051b870101925083870160005b828110156109f957603f198886030184526109e7858351610921565b945092850192908501906001016109cb565b5092979650505050505050565b60208082526022908201527f4f6e6c792061646d696e2063616e20706572666f726d2074686973206163746960408201526137b760f11b606082015260800190565b60008251610a5a8184602087016108fd565b9190910192915050565b634e487b7160e01b600052603260045260246000fd5b600181811c90821680610a8e57607f821691505b602082108103610aae57634e487b7160e01b600052602260045260246000fd5b50919050565b6000808354610ac281610a7a565b60018281168015610ada5760018114610aef57610b1e565b60ff1984168752821515830287019450610b1e565b8760005260208060002060005b85811015610b155781548a820152908401908201610afc565b50505082870194505b50929695505050505050565b634e487b7160e01b600052601160045260246000fd5b81810381811115610b5357610b53610b2a565b92915050565b601f821115610ba357600081815260208120601f850160051c81016020861015610b805750805b601f850160051c820191505b81811015610b9f57828155600101610b8c565b5050505b505050565b818103610bb3575050565b610bbd8254610a7a565b67ffffffffffffffff811115610bd557610bd5610836565b610be981610be38454610a7a565b84610b59565b6000601f821160018114610c1d5760008315610c055750848201545b600019600385901b1c1916600184901b178455610c82565b600085815260209020601f19841690600086815260209020845b83811015610c575782860154825560019586019590910190602001610c37565b5085831015610c755781850154600019600388901b60f8161c191681555b50505060018360011b0184555b5050505050565b634e487b7160e01b600052603160045260246000fd5b600060018201610cb157610cb1610b2a565b5060010190565b815167ffffffffffffffff811115610cd257610cd2610836565b610ce081610be38454610a7a565b602080601f831160018114610d155760008415610cfd5750858301515b600019600386901b1c1916600185901b178555610b9f565b600085815260208120601f198616915b82811015610d4457888601518255948401946001909101908401610d25565b5085821015610d625787850151600019600388901b60f8161c191681555b5050505050600190811b0190555056fea2646970667358221220aa71203b50c4d0af9b29e091c4580fafc02fefddeac07daa211d9c552851e05964736f6c63430008120033",
  "linkReferences": {},
  "deployedLinkReferences": {}
}