{
  "_format": "hh-sol-artifact-1",
  "contractName": "CandidateManagement",
  "sourceName": "contracts/3_CandidateManagement.sol",
  "abi": [
    {
      "inputs": [
        {
          "internalType": "address",
          "name": "_votingMachine",
          "type": "address"
        },
        {
          "internalType": "address",
          "name": "_geoContract",
          "type": "address"
        },
        {
          "internalType": "address",
          "name": "_partyContract",
          "type": "address"
        }
      ],
      "stateMutability": "nonpayable",
      "type": "constructor"
    },
    {
      "anonymous": false,
      "inputs": [
        {
          "indexed": true,
          "internalType": "uint256",
          "name": "candidateId",
          "type": "uint256"
        },
        {
          "indexed": false,
          "internalType": "string",
          "name": "name",
          "type": "string"
        },
        {
          "indexed": false,
          "internalType": "string",
          "name": "party",
          "type": "string"
        },
        {
          "indexed": false,
          "internalType": "string",
          "name": "constituency",
          "type": "string"
        }
      ],
      "name": "CandidateRegistered",
      "type": "event"
    },
    {
      "anonymous": false,
      "inputs": [
        {
          "indexed": true,
          "internalType": "uint256",
          "name": "candidateId",
          "type": "uint256"
        }
      ],
      "name": "CandidateRemoved",
      "type": "event"
    },
    {
      "inputs": [],
      "name": "admin",
      "outputs": [
        {
          "internalType": "address",
          "name": "",
          "type": "address"
        }
      ],
      "stateMutability": "view",
      "type": "function"
    },
    {
      "inputs": [
        {
          "internalType": "string",
          "name": "",
          "type": "string"
        },
        {
          "internalType": "string",
          "name": "",
          "type": "string"
        },
        {
          "internalType": "string",
          "name": "",
          "type": "string"
        }
      ],
      "name": "candidateByParty",
      "outputs": [
        {
          "internalType": "uint256",
          "name": "",
          "type": "uint256"
        }
      ],
      "stateMutability": "view",
      "type": "function"
    },
    {
      "inputs": [],
      "name": "candidateCount",
      "outputs": [
        {
          "internalType": "uint256",
          "name": "",
          "type": "uint256"
        }
      ],
      "stateMutability": "view",
      "type": "function"
    },
    {
      "inputs": [
        {
          "internalType": "string",
          "name": "_province",
          "type": "string"
        },
        {
          "internalType": "string",
          "name": "_constituency",
          "type": "string"
        },
        {
          "internalType": "string",
          "name": "_party",
          "type": "string"
        }
      ],
      "name": "candidateExistsInConstituency",
      "outputs": [
        {
          "internalType": "bool",
          "name": "",
          "type": "bool"
        }
      ],
      "stateMutability": "view",
      "type": "function"
    },
    {
      "inputs": [
        {
          "internalType": "uint256",
          "name": "",
          "type": "uint256"
        }
      ],
      "name": "candidates",
      "outputs": [
        {
          "internalType": "uint256",
          "name": "id",
          "type": "uint256"
        },
        {
          "internalType": "uint256",
          "name": "cnic",
          "type": "uint256"
        },
        {
          "internalType": "string",
          "name": "name",
          "type": "string"
        },
        {
          "internalType": "string",
          "name": "province",
          "type": "string"
        },
        {
          "internalType": "string",
          "name": "constituency",
          "type": "string"
        },
        {
          "internalType": "string",
          "name": "party",
          "type": "string"
        },
        {
          "internalType": "bool",
          "name": "exists",
          "type": "bool"
        }
      ],
      "stateMutability": "view",
      "type": "function"
    },
    {
      "inputs": [
        {
          "internalType": "string",
          "name": "",
          "type": "string"
        },
        {
          "internalType": "string",
          "name": "",
          "type": "string"
        },
        {
          "internalType": "uint256",
          "name": "",
          "type": "uint256"
        }
      ],
      "name": "candidatesInConstituency",
      "outputs": [
        {
          "internalType": "uint256",
          "name": "",
          "type": "uint256"
        }
      ],
      "stateMutability": "view",
      "type": "function"
    },
    {
      "inputs": [],
      "name": "geoContract",
      "outputs": [
        {
          "internalType": "contract GeographicManagement",
          "name": "",
          "type": "address"
        }
      ],
      "stateMutability": "view",
      "type": "function"
    },
    {
      "inputs": [],
      "name": "getCandidateCount",
      "outputs": [
        {
          "internalType": "uint256",
          "name": "",
          "type": "uint256"
        }
      ],
      "stateMutability": "view",
      "type": "function"
    },
    {
      "inputs": [
        {
          "internalType": "uint256",
          "name": "",
          "type": "uint256"
        }
      ],
      "name": "isCandidateCnicRegistered",
      "outputs": [
        {
          "internalType": "bool",
          "name": "",
          "type": "bool"
        }
      ],
      "stateMutability": "view",
      "type": "function"
    },
    {
      "inputs": [],
      "name": "partyContract",
      "outputs": [
        {
          "internalType": "contract PartyManagement",
          "name": "",
          "type": "address"
        }
      ],
      "stateMutability": "view",
      "type": "function"
    },
    {
      "inputs": [
        {
          "internalType": "uint256",
          "name": "_cnic",
          "type": "uint256"
        },
        {
          "internalType": "string",
          "name": "_name",
          "type": "string"
        },
        {
          "internalType": "string",
          "name": "_province",
          "type": "string"
        },
        {
          "internalType": "string",
          "name": "_constituency",
          "type": "string"
        },
        {
          "internalType": "string",
          "name": "_party",
          "type": "string"
        }
      ],
      "name": "registerCandidate",
      "outputs": [
        {
          "internalType": "uint256",
          "name": "",
          "type": "uint256"
        }
      ],
      "stateMutability": "nonpayable",
      "type": "function"
    },
    {
      "inputs": [
        {
          "internalType": "uint256",
          "name": "_candidateId",
          "type": "uint256"
        }
      ],
      "name": "removeCandidate",
      "outputs": [],
      "stateMutability": "nonpayable",
      "type": "function"
    },
    {
      "inputs": [
        {
          "internalType": "uint256",
          "name": "_candidateId",
          "type": "uint256"
        }
      ],
      "name": "viewCandidate",
      "outputs": [
        {
          "internalType": "uint256",
          "name": "id",
          "type": "uint256"
        },
        {
          "internalType": "uint256",
          "name": "cnic",
          "type": "uint256"
        },
        {
          "internalType": "string",
          "name": "name",
          "type": "string"
        },
        {
          "internalType": "string",
          "name": "province",
          "type": "string"
        },
        {
          "internalType": "string",
          "name": "constituency",
          "type": "string"
        },
        {
          "internalType": "string",
          "name": "party",
          "type": "string"
        }
      ],
      "stateMutability": "view",
      "type": "function"
    },
    {
      "inputs": [
        {
          "internalType": "string",
          "name": "_province",
          "type": "string"
        },
        {
          "internalType": "string",
          "name": "_constituency",
          "type": "string"
        }
      ],
      "name": "viewCandidatesByConstituency",
      "outputs": [
        {
          "internalType": "uint256[]",
          "name": "",
          "type": "uint256[]"
        }
      ],
      "stateMutability": "view",
      "type": "function"
    }
  ],
  "bytecode": "0x60806040523480156200001157600080fd5b5060405162001c7f38038062001c7f833981016040819052620000349162000094565b600080546001600160a01b039485166001600160a01b031991821617909155600180549385169382169390931790925560028054919093169116179055620000de565b80516001600160a01b03811681146200008f57600080fd5b919050565b600080600060608486031215620000aa57600080fd5b620000b58462000077565b9250620000c56020850162000077565b9150620000d56040850162000077565b90509250925092565b611b9180620000ee6000396000f3fe608060405234801561001057600080fd5b50600436106100ea5760003560e01c80634573905f1161008c578063b8f0c17c11610066578063b8f0c17c14610240578063ee96795914610263578063f851a44014610283578063fa0a0d3e1461029657600080fd5b80634573905f146102115780636b89e1b414610224578063a9a981a31461023757600080fd5b8063254a2355116100c8578063254a23551461015757806330a563471461017c5780633477ee2e1461018e578063380e7888146101b457600080fd5b806309e9d7e2146100ef5780630e9bb105146101045780631b2006c314610134575b600080fd5b6101026100fd366004611463565b6102a9565b005b600254610117906001600160a01b031681565b6040516001600160a01b0390911681526020015b60405180910390f35b61014761014236600461151f565b6107d1565b604051901515815260200161012b565b61016a610165366004611463565b610835565b60405161012b969594939291906115f7565b6007545b60405190815260200161012b565b6101a161019c366004611463565b610b59565b60405161012b979695949392919061165d565b6101806101c236600461151f565b8251602081850181018051600682529282019582019590952091909452825180840185018051928152908501938501939093209252805180820184018051938152908401919093012091525481565b61018061021f3660046116cd565b610db7565b600154610117906001600160a01b031681565b61018060075481565b61014761024e366004611463565b60046020526000908152604090205460ff1681565b61027661027136600461173a565b610e0e565b60405161012b919061179e565b600054610117906001600160a01b031681565b6101806102a43660046117e2565b610e9c565b6000546001600160a01b031633146102dc5760405162461bcd60e51b81526004016102d390611899565b60405180910390fd5b60008181526003602052604090206006015460ff166103385760405162461bcd60e51b815260206004820152601860248201527710d85b991a59185d1948191bd95cc81b9bdd08195e1a5cdd60421b60448201526064016102d3565b6000600360008381526020019081526020016000206040518060e0016040529081600082015481526020016001820154815260200160028201805461037c906118db565b80601f01602080910402602001604051908101604052809291908181526020018280546103a8906118db565b80156103f55780601f106103ca576101008083540402835291602001916103f5565b820191906000526020600020905b8154815290600101906020018083116103d857829003601f168201915b5050505050815260200160038201805461040e906118db565b80601f016020809104026020016040519081016040528092919081815260200182805461043a906118db565b80156104875780601f1061045c57610100808354040283529160200191610487565b820191906000526020600020905b81548152906001019060200180831161046a57829003601f168201915b505050505081526020016004820180546104a0906118db565b80601f01602080910402602001604051908101604052809291908181526020018280546104cc906118db565b80156105195780601f106104ee57610100808354040283529160200191610519565b820191906000526020600020905b8154815290600101906020018083116104fc57829003601f168201915b50505050508152602001600582018054610532906118db565b80601f016020809104026020016040519081016040528092919081815260200182805461055e906118db565b80156105ab5780601f10610580576101008083540402835291602001916105ab565b820191906000526020600020905b81548152906001019060200180831161058e57829003601f168201915b505050918352505060069182015460ff16151560209182015282810151600090815260049091526040808220805460ff191690556060840151905193945090926105f59190611915565b908152602001604051809103902082608001516040516106159190611915565b90815260200160405180910390208260a001516040516106359190611915565b90815260200160405180910390208190555060006005826060015160405161065d9190611915565b9081526020016040518091039020826080015160405161067d9190611915565b9081526020016040518091039020905060005b815481101561074457838282815481106106ac576106ac611931565b90600052602060002001540361073257815482906106cc9060019061195d565b815481106106dc576106dc611931565b90600052602060002001548282815481106106f9576106f9611931565b90600052602060002001819055508180548061071757610717611970565b60019003818190600052602060002001600090559055610744565b8061073c81611986565b915050610690565b506000838152600360205260408120818155600181018290559061076b600283018261140d565b61077960038301600061140d565b61078760048301600061140d565b61079560058301600061140d565b50600601805460ff1916905560405183907f294c5a9bc8a39e6e06502bc8da429980f6c7b0990d75b682c12cb8705e3ace8590600090a2505050565b60006006846040516107e39190611915565b9081526020016040518091039020836040516107ff9190611915565b90815260200160405180910390208260405161081b9190611915565b908152604051908190036020019020541515949350505050565b600081815260036020526040812060060154819060609081908190819060ff1661089c5760405162461bcd60e51b815260206004820152601860248201527710d85b991a59185d1948191bd95cc81b9bdd08195e1a5cdd60421b60448201526064016102d3565b6000600360008981526020019081526020016000206040518060e001604052908160008201548152602001600182015481526020016002820180546108e0906118db565b80601f016020809104026020016040519081016040528092919081815260200182805461090c906118db565b80156109595780601f1061092e57610100808354040283529160200191610959565b820191906000526020600020905b81548152906001019060200180831161093c57829003601f168201915b50505050508152602001600382018054610972906118db565b80601f016020809104026020016040519081016040528092919081815260200182805461099e906118db565b80156109eb5780601f106109c0576101008083540402835291602001916109eb565b820191906000526020600020905b8154815290600101906020018083116109ce57829003601f168201915b50505050508152602001600482018054610a04906118db565b80601f0160208091040260200160405190810160405280929190818152602001828054610a30906118db565b8015610a7d5780601f10610a5257610100808354040283529160200191610a7d565b820191906000526020600020905b815481529060010190602001808311610a6057829003601f168201915b50505050508152602001600582018054610a96906118db565b80601f0160208091040260200160405190810160405280929190818152602001828054610ac2906118db565b8015610b0f5780601f10610ae457610100808354040283529160200191610b0f565b820191906000526020600020905b815481529060010190602001808311610af257829003601f168201915b50505091835250506006919091015460ff16151560209182015281519082015160408301516060840151608085015160a090950151939d929c50909a509850919650945092505050565b60036020526000908152604090208054600182015460028301805492939192610b81906118db565b80601f0160208091040260200160405190810160405280929190818152602001828054610bad906118db565b8015610bfa5780601f10610bcf57610100808354040283529160200191610bfa565b820191906000526020600020905b815481529060010190602001808311610bdd57829003601f168201915b505050505090806003018054610c0f906118db565b80601f0160208091040260200160405190810160405280929190818152602001828054610c3b906118db565b8015610c885780601f10610c5d57610100808354040283529160200191610c88565b820191906000526020600020905b815481529060010190602001808311610c6b57829003601f168201915b505050505090806004018054610c9d906118db565b80601f0160208091040260200160405190810160405280929190818152602001828054610cc9906118db565b8015610d165780601f10610ceb57610100808354040283529160200191610d16565b820191906000526020600020905b815481529060010190602001808311610cf957829003601f168201915b505050505090806005018054610d2b906118db565b80601f0160208091040260200160405190810160405280929190818152602001828054610d57906118db565b8015610da45780601f10610d7957610100808354040283529160200191610da4565b820191906000526020600020905b815481529060010190602001808311610d8757829003601f168201915b5050506006909301549192505060ff1687565b8251602081850181018051600582529282018287012092905283518085018201805193815290820191850191909120919052805482908110610df857600080fd5b9060005260206000200160009250925050505481565b6060600583604051610e209190611915565b908152602001604051809103902082604051610e3c9190611915565b9081526040805191829003602090810183208054808302850183019093528284529190830182828015610e8e57602002820191906000526020600020905b815481526020019060010190808311610e7a575b505050505090505b92915050565b600080546001600160a01b03163314610ec75760405162461bcd60e51b81526004016102d390611899565b60008681526004602052604090205460ff1615610f325760405162461bcd60e51b8152602060048201526024808201527f434e494320616c726561647920726567697374657265642061732063616e64696044820152636461746560e01b60648201526084016102d3565b600154604051633181494b60e01b81526001600160a01b0390911690633181494b90610f6290879060040161199f565b602060405180830381865afa158015610f7f573d6000803e3d6000fd5b505050506040513d601f19601f82011682018060405250810190610fa391906119b9565b610fef5760405162461bcd60e51b815260206004820152601760248201527f50726f76696e636520646f6573206e6f7420657869737400000000000000000060448201526064016102d3565b6001546040516332a80b6160e11b81526001600160a01b039091169063655016c29061102190879087906004016119db565b602060405180830381865afa15801561103e573d6000803e3d6000fd5b505050506040513d601f19601f8201168201806040525081019061106291906119b9565b6110ae5760405162461bcd60e51b815260206004820152601b60248201527f436f6e7374697475656e637920646f6573206e6f74206578697374000000000060448201526064016102d3565b600254604051635b6b025760e11b81526001600160a01b039091169063b6d604ae906110de90859060040161199f565b602060405180830381865afa1580156110fb573d6000803e3d6000fd5b505050506040513d601f19601f8201168201806040525081019061111f91906119b9565b6111625760405162461bcd60e51b815260206004820152601460248201527314185c9d1e481b9bdd081c9959da5cdd195c995960621b60448201526064016102d3565b6006846040516111729190611915565b90815260200160405180910390208360405161118e9190611915565b9081526020016040518091039020826040516111aa9190611915565b9081526020016040518091039020546000146112215760405162461bcd60e51b815260206004820152603060248201527f506172747920616c7265616479206861732063616e64696461746520696e207460448201526f68697320636f6e7374697475656e637960801b60648201526084016102d3565b6007805490600061123183611986565b90915550506040805160e08101825260075480825260208083018a81528385018a8152606085018a90526080850189905260a08501889052600160c086018190526000948552600390935294909220835181559151908201559151909190600282019061129e9082611a58565b50606082015160038201906112b39082611a58565b50608082015160048201906112c89082611a58565b5060a082015160058201906112dd9082611a58565b5060c091909101516006909101805491151560ff1992831617905560008781526004602052604090819020805490921660011790915551600590611322908690611915565b90815260200160405180910390208360405161133e9190611915565b9081526040519081900360209081018220600780548254600181018455600093845293909220909201555490600690611378908790611915565b9081526020016040518091039020846040516113949190611915565b9081526020016040518091039020836040516113b09190611915565b9081526020016040518091039020819055506007547fb76aadacec2d73468ab4c03b3976f369439578b697493e0b3596ae94726d84048684866040516113f893929190611b18565b60405180910390a25060075495945050505050565b508054611419906118db565b6000825580601f10611429575050565b601f016020900490600052602060002090810190611447919061144a565b50565b5b8082111561145f576000815560010161144b565b5090565b60006020828403121561147557600080fd5b5035919050565b634e487b7160e01b600052604160045260246000fd5b600082601f8301126114a357600080fd5b813567ffffffffffffffff808211156114be576114be61147c565b604051601f8301601f19908116603f011681019082821181831017156114e6576114e661147c565b816040528381528660208588010111156114ff57600080fd5b836020870160208301376000602085830101528094505050505092915050565b60008060006060848603121561153457600080fd5b833567ffffffffffffffff8082111561154c57600080fd5b61155887838801611492565b9450602086013591508082111561156e57600080fd5b61157a87838801611492565b9350604086013591508082111561159057600080fd5b5061159d86828701611492565b9150509250925092565b60005b838110156115c25781810151838201526020016115aa565b50506000910152565b600081518084526115e38160208601602086016115a7565b601f01601f19169290920160200192915050565b86815285602082015260c06040820152600061161660c08301876115cb565b828103606084015261162881876115cb565b9050828103608084015261163c81866115cb565b905082810360a084015261165081856115cb565b9998505050505050505050565b87815286602082015260e06040820152600061167c60e08301886115cb565b828103606084015261168e81886115cb565b905082810360808401526116a281876115cb565b905082810360a08401526116b681866115cb565b91505082151560c083015298975050505050505050565b6000806000606084860312156116e257600080fd5b833567ffffffffffffffff808211156116fa57600080fd5b61170687838801611492565b9450602086013591508082111561171c57600080fd5b5061172986828701611492565b925050604084013590509250925092565b6000806040838503121561174d57600080fd5b823567ffffffffffffffff8082111561176557600080fd5b61177186838701611492565b9350602085013591508082111561178757600080fd5b5061179485828601611492565b9150509250929050565b6020808252825182820181905260009190848201906040850190845b818110156117d6578351835292840192918401916001016117ba565b50909695505050505050565b600080600080600060a086880312156117fa57600080fd5b85359450602086013567ffffffffffffffff8082111561181957600080fd5b61182589838a01611492565b9550604088013591508082111561183b57600080fd5b61184789838a01611492565b9450606088013591508082111561185d57600080fd5b61186989838a01611492565b9350608088013591508082111561187f57600080fd5b5061188c88828901611492565b9150509295509295909350565b60208082526022908201527f4f6e6c792061646d696e2063616e20706572666f726d2074686973206163746960408201526137b760f11b606082015260800190565b600181811c908216806118ef57607f821691505b60208210810361190f57634e487b7160e01b600052602260045260246000fd5b50919050565b600082516119278184602087016115a7565b9190910192915050565b634e487b7160e01b600052603260045260246000fd5b634e487b7160e01b600052601160045260246000fd5b81810381811115610e9657610e96611947565b634e487b7160e01b600052603160045260246000fd5b60006001820161199857611998611947565b5060010190565b6020815260006119b260208301846115cb565b9392505050565b6000602082840312156119cb57600080fd5b815180151581146119b257600080fd5b6040815260006119ee60408301856115cb565b8281036020840152611a0081856115cb565b95945050505050565b601f821115611a5357600081815260208120601f850160051c81016020861015611a305750805b601f850160051c820191505b81811015611a4f57828155600101611a3c565b5050505b505050565b815167ffffffffffffffff811115611a7257611a7261147c565b611a8681611a8084546118db565b84611a09565b602080601f831160018114611abb5760008415611aa35750858301515b600019600386901b1c1916600185901b178555611a4f565b600085815260208120601f198616915b82811015611aea57888601518255948401946001909101908401611acb565b5085821015611b085787850151600019600388901b60f8161c191681555b5050505050600190811b01905550565b606081526000611b2b60608301866115cb565b8281036020840152611b3d81866115cb565b90508281036040840152611b5181856115cb565b969550505050505056fea2646970667358221220e2004eac4d9e68d5c0e8139bafa7951e07b76a2aa02faf234468a2be97ce48a364736f6c63430008120033",
  "linkReferences": {},
  "deployedLinkReferences": {}
}