{
  "_format": "hh-sol-artifact-1",
  "contractName": "ResultManagement",
  "sourceName": "contracts/6_ResultManagement.sol",
  "abi": [
    {
      "inputs": [
        {
          "internalType": "address",
          "name": "_votingMachine",
          "type": "address"
        },
        {
          "internalType": "address",
          "name": "_votingContract",
          "type": "address"
        },
        {
          "internalType": "address",
          "name": "_candidateContract",
          "type": "address"
        },
        {
          "internalType": "address",
          "name": "_voterContract",
          "type": "address"
        }
      ],
      "stateMutability": "nonpayable",
      "type": "constructor"
    },
    {
      "anonymous": false,
      "inputs": [
        {
          "indexed": false,
          "internalType": "uint256",
          "name": "timestamp",
          "type": "uint256"
        }
      ],
      "name": "AllResultsReset",
      "type": "event"
    },
    {
      "anonymous": false,
      "inputs": [
        {
          "indexed": true,
          "internalType": "string",
          "name": "province",
          "type": "string"
        },
        {
          "indexed": true,
          "internalType": "string",
          "name": "constituency",
          "type": "string"
        },
        {
          "indexed": false,
          "internalType": "uint256",
          "name": "winnerId",
          "type": "uint256"
        },
        {
          "indexed": false,
          "internalType": "uint256",
          "name": "voteCount",
          "type": "uint256"
        }
      ],
      "name": "ResultDeclared",
      "type": "event"
    },
    {
      "anonymous": false,
      "inputs": [
        {
          "indexed": true,
          "internalType": "uint256",
          "name": "candidateId",
          "type": "uint256"
        },
        {
          "indexed": false,
          "internalType": "uint256",
          "name": "voteCount",
          "type": "uint256"
        }
      ],
      "name": "VoteCountEntered",
      "type": "event"
    },
    {
      "anonymous": false,
      "inputs": [
        {
          "indexed": true,
          "internalType": "string",
          "name": "province",
          "type": "string"
        },
        {
          "indexed": true,
          "internalType": "string",
          "name": "constituency",
          "type": "string"
        },
        {
          "indexed": false,
          "internalType": "uint256",
          "name": "totalVotes",
          "type": "uint256"
        }
      ],
      "name": "VotesCounted",
      "type": "event"
    },
    {
      "inputs": [],
      "name": "admin",
      "outputs": [
        {
          "internalType": "address",
          "name": "",
          "type": "address"
        }
      ],
      "stateMutability": "view",
      "type": "function"
    },
    {
      "inputs": [
        {
          "internalType": "string",
          "name": "_province",
          "type": "string"
        },
        {
          "internalType": "string",
          "name": "_constituency",
          "type": "string"
        }
      ],
      "name": "autoCountVotes",
      "outputs": [
        {
          "internalType": "uint256",
          "name": "totalVotes",
          "type": "uint256"
        }
      ],
      "stateMutability": "nonpayable",
      "type": "function"
    },
    {
      "inputs": [],
      "name": "candidateContract",
      "outputs": [
        {
          "internalType": "contract CandidateManagement",
          "name": "",
          "type": "address"
        }
      ],
      "stateMutability": "view",
      "type": "function"
    },
    {
      "inputs": [
        {
          "internalType": "uint256",
          "name": "",
          "type": "uint256"
        }
      ],
      "name": "candidateVotes",
      "outputs": [
        {
          "internalType": "uint256",
          "name": "",
          "type": "uint256"
        }
      ],
      "stateMutability": "view",
      "type": "function"
    },
    {
      "inputs": [
        {
          "internalType": "string",
          "name": "_province",
          "type": "string"
        },
        {
          "internalType": "string",
          "name": "_constituency",
          "type": "string"
        }
      ],
      "name": "countVotes",
      "outputs": [],
      "stateMutability": "nonpayable",
      "type": "function"
    },
    {
      "inputs": [
        {
          "internalType": "string",
          "name": "_province",
          "type": "string"
        },
        {
          "internalType": "string",
          "name": "_constituency",
          "type": "string"
        }
      ],
      "name": "declareWinner",
      "outputs": [
        {
          "internalType": "uint256",
          "name": "winnerId",
          "type": "uint256"
        },
        {
          "internalType": "uint256",
          "name": "winnerVotes",
          "type": "uint256"
        }
      ],
      "stateMutability": "nonpayable",
      "type": "function"
    },
    {
      "inputs": [
        {
          "internalType": "uint256[]",
          "name": "_candidateIds",
          "type": "uint256[]"
        },
        {
          "internalType": "uint256[]",
          "name": "_counts",
          "type": "uint256[]"
        }
      ],
      "name": "enterVoteCounts",
      "outputs": [],
      "stateMutability": "nonpayable",
      "type": "function"
    },
    {
      "inputs": [
        {
          "internalType": "uint256",
          "name": "_candidateId",
          "type": "uint256"
        }
      ],
      "name": "getCandidateVotes",
      "outputs": [
        {
          "internalType": "uint256",
          "name": "",
          "type": "uint256"
        }
      ],
      "stateMutability": "view",
      "type": "function"
    },
    {
      "inputs": [
        {
          "internalType": "string",
          "name": "_province",
          "type": "string"
        },
        {
          "internalType": "string",
          "name": "_constituency",
          "type": "string"
        }
      ],
      "name": "getResults",
      "outputs": [
        {
          "internalType": "uint256[]",
          "name": "candidateIds",
          "type": "uint256[]"
        },
        {
          "internalType": "uint256[]",
          "name": "voteCounts",
          "type": "uint256[]"
        }
      ],
      "stateMutability": "view",
      "type": "function"
    },
    {
      "inputs": [
        {
          "internalType": "string",
          "name": "_province",
          "type": "string"
        },
        {
          "internalType": "string",
          "name": "_constituency",
          "type": "string"
        }
      ],
      "name": "getWinner",
      "outputs": [
        {
          "internalType": "uint256",
          "name": "winnerId",
          "type": "uint256"
        },
        {
          "internalType": "uint256",
          "name": "voteCount",
          "type": "uint256"
        },
        {
          "internalType": "bool",
          "name": "isDeclared",
          "type": "bool"
        }
      ],
      "stateMutability": "view",
      "type": "function"
    },
    {
      "inputs": [
        {
          "internalType": "string",
          "name": "_province",
          "type": "string"
        },
        {
          "internalType": "string",
          "name": "_constituency",
          "type": "string"
        }
      ],
      "name": "isResultDeclared",
      "outputs": [
        {
          "internalType": "bool",
          "name": "",
          "type": "bool"
        }
      ],
      "stateMutability": "view",
      "type": "function"
    },
    {
      "inputs": [],
      "name": "resetAllResults",
      "outputs": [
        {
          "internalType": "uint256",
          "name": "",
          "type": "uint256"
        }
      ],
      "stateMutability": "nonpayable",
      "type": "function"
    },
    {
      "inputs": [
        {
          "internalType": "string",
          "name": "",
          "type": "string"
        },
        {
          "internalType": "string",
          "name": "",
          "type": "string"
        }
      ],
      "name": "resultDeclared",
      "outputs": [
        {
          "internalType": "bool",
          "name": "",
          "type": "bool"
        }
      ],
      "stateMutability": "view",
      "type": "function"
    },
    {
      "inputs": [],
      "name": "voterContract",
      "outputs": [
        {
          "internalType": "contract VoterManagement",
          "name": "",
          "type": "address"
        }
      ],
      "stateMutability": "view",
      "type": "function"
    },
    {
      "inputs": [],
      "name": "votingContract",
      "outputs": [
        {
          "internalType": "contract VotingProcess",
          "name": "",
          "type": "address"
        }
      ],
      "stateMutability": "view",
      "type": "function"
    },
    {
      "inputs": [
        {
          "internalType": "string",
          "name": "",
          "type": "string"
        },
        {
          "internalType": "string",
          "name": "",
          "type": "string"
        }
      ],
      "name": "winners",
      "outputs": [
        {
          "internalType": "uint256",
          "name": "",
          "type": "uint256"
        }
      ],
      "stateMutability": "view",
      "type": "function"
    }
  ],
  "bytecode": "0x60806040523480156200001157600080fd5b5060405162002163380380620021638339810160408190526200003491620000a5565b600080546001600160a01b039586166001600160a01b031991821617909155600180549486169482169490941790935560028054928516928416929092179091556003805491909316911617905562000102565b80516001600160a01b0381168114620000a057600080fd5b919050565b60008060008060808587031215620000bc57600080fd5b620000c78562000088565b9350620000d76020860162000088565b9250620000e76040860162000088565b9150620000f76060860162000088565b905092959194509250565b61205180620001126000396000f3fe608060405234801561001057600080fd5b50600436106101005760003560e01c8063a95a11e811610097578063e6610bc811610066578063e6610bc8146102c0578063f033cfe8146102d3578063f49e323e146102fb578063f851a4401461031b57600080fd5b8063a95a11e81461024e578063b4a3a1621461026f578063c1fc006a1461029a578063d63efe0e146102ad57600080fd5b806385ecbe72116100d357806385ecbe72146101ae578063866163c0146101de57806390d1694e146101fe578063941189031461024657600080fd5b80630b29a85814610105578063292c5e8f1461012b57806344abe7f6146101405780636a7ab8541461019b575b600080fd5b6101186101133660046118c6565b61032e565b6040519081526020015b60405180910390f35b61013e6101393660046119b4565b610813565b005b61018b61014e3660046118c6565b8151602081840181018051600582529282019482019490942091909352815180830184018051928152908401929093019190912091525460ff1681565b6040519015158152602001610122565b61018b6101a93660046118c6565b610a8c565b6101c16101bc3660046118c6565b610ad5565b604080519384526020840192909252151590820152606001610122565b6101186101ec366004611a0e565b60009081526004602052604090205490565b61011861020c3660046118c6565b8151602081840181018051600682529282019482019490942091909352815180830184018051928152908401929093019190912091525481565b610118610b78565b61026161025c3660046118c6565b610f2b565b604051610122929190611a62565b600254610282906001600160a01b031681565b6040516001600160a01b039091168152602001610122565b600154610282906001600160a01b031681565b61013e6102bb3660046118c6565b611066565b600354610282906001600160a01b031681565b6102e66102e13660046118c6565b6112fa565b60408051928352602083019190915201610122565b610118610309366004611a0e565b60046020526000908152604090205481565b600054610282906001600160a01b031681565b600080546001600160a01b031633146103625760405162461bcd60e51b815260040161035990611a90565b60405180910390fd5b600154604080516316070a0760e21b815290516000926001600160a01b03169163581c281c9160048083019260809291908290030181865afa1580156103ac573d6000803e3d6000fd5b505050506040513d601f19601f820116820180604052508101906103d09190611ae7565b5050509050801561041e5760405162461bcd60e51b8152602060048201526018602482015277566f74696e67207374696c6c20696e2070726f677265737360401b6044820152606401610359565b60058460405161042e9190611b48565b90815260200160405180910390208360405161044a9190611b48565b9081526040519081900360200190205460ff161561047a5760405162461bcd60e51b815260040161035990611b64565b60025460405163ee96795960e01b81526000916001600160a01b03169063ee967959906104ad9088908890600401611bc7565b600060405180830381865afa1580156104ca573d6000803e3d6000fd5b505050506040513d6000823e601f3d908101601f191682016040526104f29190810190611bec565b905060008151116105455760405162461bcd60e51b815260206004820152601d60248201527f4e6f2063616e6469646174657320696e20636f6e7374697475656e63790000006044820152606401610359565b60005b81518110156105965760006004600084848151811061056957610569611c7d565b6020026020010151815260200190815260200160002081905550808061058e90611c93565b915050610548565b506003546040805163e7ba1f4160e01b815290516000926001600160a01b03169163e7ba1f4191600480830192869291908290030181865afa1580156105e0573d6000803e3d6000fd5b505050506040513d6000823e601f3d908101601f191682016040526106089190810190611bec565b905060005b81518110156107ab57600082828151811061062a5761062a611c7d565b6020908102919091010151600354604051635a3169ad60e11b8152600481018390529192506001600160a01b03169063b462d35a90602401600060405180830381865afa9250505080156106a057506040513d6000823e601f3d908101601f1916820160405261069d9190810190611d07565b60015b6106aa5750610799565b8080156106b45750815b80156106cd57508d805190602001208480519060200120145b80156106e657508c805190602001208380519060200120145b15610791576001546040516305df813360e41b8152600481018990526000916001600160a01b031690635df8133090602401602060405180830381865afa158015610735573d6000803e3d6000fd5b505050506040513d601f19601f820116820180604052508101906107599190611db9565b9050801561078f57600081815260046020526040812080549161077b83611c93565b91905055508c8061078b90611c93565b9d50505b505b505050505050505b806107a381611c93565b91505061060d565b50846040516107ba9190611b48565b6040518091039020866040516107d09190611b48565b604051908190038120868252907f4aad4d51c2589d27224396aa045f8718752312f778138651c966699a8a606fe59060200160405180910390a350505092915050565b6000546001600160a01b0316331461083d5760405162461bcd60e51b815260040161035990611a90565b80518251146108865760405162461bcd60e51b8152602060048201526015602482015274082e4e4c2f240d8cadccee8d040dad2e6dac2e8c6d605b1b6044820152606401610359565b60008251116108c65760405162461bcd60e51b815260206004820152600c60248201526b456d7074792061727261797360a01b6044820152606401610359565b60005b8251811015610a875760025483516000916001600160a01b03169063254a2355908690859081106108fc576108fc611c7d565b60200260200101516040518263ffffffff1660e01b815260040161092291815260200190565b600060405180830381865afa15801561093f573d6000803e3d6000fd5b505050506040513d6000823e601f3d908101601f191682016040526109679190810190611dd2565b50505050509050806000036109be5760405162461bcd60e51b815260206004820152601860248201527f43616e64696461746520646f6573206e6f7420657869737400000000000000006044820152606401610359565b8282815181106109d0576109d0611c7d565b6020026020010151600460008685815181106109ee576109ee611c7d565b6020026020010151815260200190815260200160002081905550838281518110610a1a57610a1a611c7d565b60200260200101517fde85f85a8145ba26b4d6b6be985d10d19d5f9caf2cb1201088e488968bfde7a0848481518110610a5557610a55611c7d565b6020026020010151604051610a6c91815260200190565b60405180910390a25080610a7f81611c93565b9150506108c9565b505050565b6000600583604051610a9e9190611b48565b908152602001604051809103902082604051610aba9190611b48565b9081526040519081900360200190205460ff16905092915050565b600080600080600586604051610aeb9190611b48565b908152602001604051809103902085604051610b079190611b48565b9081526040519081900360200181205460ff169150600090600690610b2d908990611b48565b908152602001604051809103902086604051610b499190611b48565b908152604080516020928190038301902054600081815260049093529120549098909750919550909350505050565b600080546001600160a01b03163314610ba35760405162461bcd60e51b815260040161035990611a90565b6000805b600754811015610ee657600060078281548110610bc657610bc6611c7d565b906000526020600020018054610bdb90611e91565b80601f0160208091040260200160405190810160405280929190818152602001828054610c0790611e91565b8015610c545780601f10610c2957610100808354040283529160200191610c54565b820191906000526020600020905b815481529060010190602001808311610c3757829003601f168201915b505050505090506000600982604051610c6d9190611b48565b9081526020016040518091039020805480602002602001604051908101604052809291908181526020016000905b82821015610d47578382906000526020600020018054610cba90611e91565b80601f0160208091040260200160405190810160405280929190818152602001828054610ce690611e91565b8015610d335780601f10610d0857610100808354040283529160200191610d33565b820191906000526020600020905b815481529060010190602001808311610d1657829003601f168201915b505050505081526020019060010190610c9b565b50505050905060005b8151811015610e74576000828281518110610d6d57610d6d611c7d565b602002602001015190506000600585604051610d899190611b48565b908152602001604051809103902082604051610da59190611b48565b908152604051908190036020018120805492151560ff1990931692909217909155600090600690610dd7908790611b48565b908152602001604051809103902082604051610df39190611b48565b9081526020016040518091039020819055506000600a85604051610e179190611b48565b908152602001604051809103902082604051610e339190611b48565b908152604051908190036020019020805491151560ff1990921691909117905585610e5d81611c93565b965050508080610e6c90611c93565b915050610d50565b50600982604051610e859190611b48565b90815260200160405180910390206000610e9f9190611775565b6000600883604051610eb19190611b48565b908152604051908190036020019020805491151560ff1990921691909117905550819050610ede81611c93565b915050610ba7565b50610ef360076000611775565b6040514281527f593691da8f04736582242a01259187fa766232bf7498cbdcc7be4fb3bc273a4e9060200160405180910390a1905090565b60025460405163ee96795960e01b815260609182916000916001600160a01b03169063ee96795990610f639088908890600401611bc7565b600060405180830381865afa158015610f80573d6000803e3d6000fd5b505050506040513d6000823e601f3d908101601f19168201604052610fa89190810190611bec565b90506000815167ffffffffffffffff811115610fc657610fc6611801565b604051908082528060200260200182016040528015610fef578160200160208202803683370190505b50905060005b825181101561105a576004600084838151811061101457611014611c7d565b602002602001015181526020019081526020016000205482828151811061103d5761103d611c7d565b60209081029190910101528061105281611c93565b915050610ff5565b50909590945092505050565b6000546001600160a01b031633146110905760405162461bcd60e51b815260040161035990611a90565b600154604080516316070a0760e21b815290516000926001600160a01b03169163581c281c9160048083019260809291908290030181865afa1580156110da573d6000803e3d6000fd5b505050506040513d601f19601f820116820180604052508101906110fe9190611ae7565b5050509050801561114c5760405162461bcd60e51b8152602060048201526018602482015277566f74696e67207374696c6c20696e2070726f677265737360401b6044820152606401610359565b60058360405161115c9190611b48565b9081526020016040518091039020826040516111789190611b48565b9081526040519081900360200190205460ff16156111a85760405162461bcd60e51b815260040161035990611b64565b60025460405163ee96795960e01b81526000916001600160a01b03169063ee967959906111db9087908790600401611bc7565b600060405180830381865afa1580156111f8573d6000803e3d6000fd5b505050506040513d6000823e601f3d908101601f191682016040526112209190810190611bec565b905060008151116112435760405162461bcd60e51b815260040161035990611ecb565b60005b81518110156112945760006004600084848151811061126757611267611c7d565b6020026020010151815260200190815260200160002081905550808061128c90611c93565b915050611246565b50826040516112a39190611b48565b6040518091039020846040516112b99190611b48565b60405190819003812060008252907f4aad4d51c2589d27224396aa045f8718752312f778138651c966699a8a606fe59060200160405180910390a350505050565b6000805481906001600160a01b031633146113275760405162461bcd60e51b815260040161035990611a90565b6005846040516113379190611b48565b9081526020016040518091039020836040516113539190611b48565b9081526040519081900360200190205460ff16156113835760405162461bcd60e51b815260040161035990611b64565b60025460405163ee96795960e01b81526000916001600160a01b03169063ee967959906113b69088908890600401611bc7565b600060405180830381865afa1580156113d3573d6000803e3d6000fd5b505050506040513d6000823e601f3d908101601f191682016040526113fb9190810190611bec565b9050600081511161141e5760405162461bcd60e51b815260040161035990611ecb565b60008060005b83518110156114bf57826004600086848151811061144457611444611c7d565b602002602001015181526020019081526020016000205411156114ad576004600085838151811061147757611477611c7d565b602002602001015181526020019081526020016000205492508381815181106114a2576114a2611c7d565b602002602001015191505b806114b781611c93565b915050611424565b50806000036115085760405162461bcd60e51b8152602060048201526015602482015274139bc81d985b1a59081dda5b9b995c88199bdd5b99605a1b6044820152606401610359565b600160058860405161151a9190611b48565b9081526020016040518091039020876040516115369190611b48565b908152604051908190036020018120805492151560ff19909316929092179091558190600690611567908a90611b48565b9081526020016040518091039020876040516115839190611b48565b9081526040519081900360200190205561159d878761160c565b856040516115ab9190611b48565b6040518091039020876040516115c19190611b48565b6040805191829003822084835260208301869052917ff27d5e276decf8c6229f9f95c27f243b8bac30034350f4cefced9c32ff71774c910160405180910390a3969095509350505050565b60088260405161161c9190611b48565b9081526040519081900360200190205460ff166116a357600780546001810182556000919091527fa66cc928b5edb82af9bd49922954155ab7b0942694bea4ce44661d9a8736c6880161166f8382611f5b565b5060016008836040516116829190611b48565b908152604051908190036020019020805491151560ff199092169190911790555b600a826040516116b39190611b48565b9081526020016040518091039020816040516116cf9190611b48565b9081526040519081900360200190205460ff16611771576009826040516116f69190611b48565b9081526040516020918190038201902080546001810182556000918252919020016117218282611f5b565b506001600a836040516117349190611b48565b9081526020016040518091039020826040516117509190611b48565b908152604051908190036020019020805491151560ff199092169190911790555b5050565b50805460008255906000526020600020908101906117939190611796565b50565b808211156117b35760006117aa82826117b7565b50600101611796565b5090565b5080546117c390611e91565b6000825580601f106117d3575050565b601f01602090049060005260206000209081019061179391905b808211156117b357600081556001016117ed565b634e487b7160e01b600052604160045260246000fd5b604051601f8201601f1916810167ffffffffffffffff8111828210171561184057611840611801565b604052919050565b600067ffffffffffffffff82111561186257611862611801565b50601f01601f191660200190565b600082601f83011261188157600080fd5b813561189461188f82611848565b611817565b8181528460208386010111156118a957600080fd5b816020850160208301376000918101602001919091529392505050565b600080604083850312156118d957600080fd5b823567ffffffffffffffff808211156118f157600080fd5b6118fd86838701611870565b9350602085013591508082111561191357600080fd5b5061192085828601611870565b9150509250929050565b600067ffffffffffffffff82111561194457611944611801565b5060051b60200190565b600082601f83011261195f57600080fd5b8135602061196f61188f8361192a565b82815260059290921b8401810191818101908684111561198e57600080fd5b8286015b848110156119a95780358352918301918301611992565b509695505050505050565b600080604083850312156119c757600080fd5b823567ffffffffffffffff808211156119df57600080fd5b6119eb8683870161194e565b93506020850135915080821115611a0157600080fd5b506119208582860161194e565b600060208284031215611a2057600080fd5b5035919050565b600081518084526020808501945080840160005b83811015611a5757815187529582019590820190600101611a3b565b509495945050505050565b604081526000611a756040830185611a27565b8281036020840152611a878185611a27565b95945050505050565b60208082526022908201527f4f6e6c792061646d696e2063616e20706572666f726d2074686973206163746960408201526137b760f11b606082015260800190565b80518015158114611ae257600080fd5b919050565b60008060008060808587031215611afd57600080fd5b611b0685611ad2565b60208601516040870151606090970151919890975090945092505050565b60005b83811015611b3f578181015183820152602001611b27565b50506000910152565b60008251611b5a818460208701611b24565b9190910192915050565b60208082526017908201527f526573756c7420616c7265616479206465636c61726564000000000000000000604082015260600190565b60008151808452611bb3816020860160208601611b24565b601f01601f19169290920160200192915050565b604081526000611bda6040830185611b9b565b8281036020840152611a878185611b9b565b60006020808385031215611bff57600080fd5b825167ffffffffffffffff811115611c1657600080fd5b8301601f81018513611c2757600080fd5b8051611c3561188f8261192a565b81815260059190911b82018301908381019087831115611c5457600080fd5b928401925b82841015611c7257835182529284019290840190611c59565b979650505050505050565b634e487b7160e01b600052603260045260246000fd5b600060018201611cb357634e487b7160e01b600052601160045260246000fd5b5060010190565b600082601f830112611ccb57600080fd5b8151611cd961188f82611848565b818152846020838601011115611cee57600080fd5b611cff826020830160208701611b24565b949350505050565b60008060008060008060c08789031215611d2057600080fd5b86519550602087015167ffffffffffffffff80821115611d3f57600080fd5b611d4b8a838b01611cba565b96506040890151915080821115611d6157600080fd5b611d6d8a838b01611cba565b95506060890151915080821115611d8357600080fd5b50611d9089828a01611cba565b935050611d9f60808801611ad2565b9150611dad60a08801611ad2565b90509295509295509295565b600060208284031215611dcb57600080fd5b5051919050565b60008060008060008060c08789031215611deb57600080fd5b8651955060208701519450604087015167ffffffffffffffff80821115611e1157600080fd5b611e1d8a838b01611cba565b95506060890151915080821115611e3357600080fd5b611e3f8a838b01611cba565b94506080890151915080821115611e5557600080fd5b611e618a838b01611cba565b935060a0890151915080821115611e7757600080fd5b50611e8489828a01611cba565b9150509295509295509295565b600181811c90821680611ea557607f821691505b602082108103611ec557634e487b7160e01b600052602260045260246000fd5b50919050565b60208082526022908201527f4e6f2063616e6469646174657320696e207468697320636f6e7374697475656e604082015261637960f01b606082015260800190565b601f821115610a8757600081815260208120601f850160051c81016020861015611f345750805b601f850160051c820191505b81811015611f5357828155600101611f40565b505050505050565b815167ffffffffffffffff811115611f7557611f75611801565b611f8981611f838454611e91565b84611f0d565b602080601f831160018114611fbe5760008415611fa65750858301515b600019600386901b1c1916600185901b178555611f53565b600085815260208120601f198616915b82811015611fed57888601518255948401946001909101908401611fce565b508582101561200b5787850151600019600388901b60f8161c191681555b5050505050600190811b0190555056fea2646970667358221220bc4832cf659b9f7af3a5668dc97d306e2703cdba2539bde89a5040e25120349664736f6c63430008120033",
  "linkReferences": {},
  "deployedLinkReferences": {}
}