{
  "_format": "hh-sol-artifact-1",
  "contractName": "VoterManagement",
  "sourceName": "contracts/4_VoterManagement.sol",
  "abi": [
    {
      "inputs": [
        {
          "internalType": "address",
          "name": "_votingMachine",
          "type": "address"
        },
        {
          "internalType": "address",
          "name": "_geoContract",
          "type": "address"
        }
      ],
      "stateMutability": "nonpayable",
      "type": "constructor"
    },
    {
      "anonymous": false,
      "inputs": [
        {
          "indexed": false,
          "internalType": "uint256",
          "name": "count",
          "type": "uint256"
        },
        {
          "indexed": false,
          "internalType": "uint256",
          "name": "timestamp",
          "type": "uint256"
        }
      ],
      "name": "AllVotersResetForNewElection",
      "type": "event"
    },
    {
      "anonymous": false,
      "inputs": [
        {
          "indexed": true,
          "internalType": "uint256",
          "name": "cnic",
          "type": "uint256"
        }
      ],
      "name": "VoterMarkedAsVoted",
      "type": "event"
    },
    {
      "anonymous": false,
      "inputs": [
        {
          "indexed": true,
          "internalType": "uint256",
          "name": "cnic",
          "type": "uint256"
        },
        {
          "indexed": false,
          "internalType": "uint256",
          "name": "timestamp",
          "type": "uint256"
        }
      ],
      "name": "VoterPasswordChanged",
      "type": "event"
    },
    {
      "anonymous": false,
      "inputs": [
        {
          "indexed": true,
          "internalType": "uint256",
          "name": "cnic",
          "type": "uint256"
        },
        {
          "indexed": false,
          "internalType": "string",
          "name": "name",
          "type": "string"
        },
        {
          "indexed": false,
          "internalType": "string",
          "name": "constituency",
          "type": "string"
        }
      ],
      "name": "VoterRegistered",
      "type": "event"
    },
    {
      "anonymous": false,
      "inputs": [
        {
          "indexed": true,
          "internalType": "uint256",
          "name": "cnic",
          "type": "uint256"
        }
      ],
      "name": "VoterRemoved",
      "type": "event"
    },
    {
      "anonymous": false,
      "inputs": [
        {
          "indexed": true,
          "internalType": "uint256",
          "name": "cnic",
          "type": "uint256"
        }
      ],
      "name": "VoterResetForNewElection",
      "type": "event"
    },
    {
      "anonymous": false,
      "inputs": [
        {
          "indexed": true,
          "internalType": "address",
          "name": "votingProcess",
          "type": "address"
        }
      ],
      "name": "VotingProcessSet",
      "type": "event"
    },
    {
      "inputs": [],
      "name": "admin",
      "outputs": [
        {
          "internalType": "address",
          "name": "",
          "type": "address"
        }
      ],
      "stateMutability": "view",
      "type": "function"
    },
    {
      "inputs": [
        {
          "internalType": "uint256[]",
          "name": "_cnics",
          "type": "uint256[]"
        },
        {
          "internalType": "string[]",
          "name": "_names",
          "type": "string[]"
        },
        {
          "internalType": "string[]",
          "name": "_provinces",
          "type": "string[]"
        },
        {
          "internalType": "string[]",
          "name": "_constituencies",
          "type": "string[]"
        },
        {
          "internalType": "string[]",
          "name": "_passwords",
          "type": "string[]"
        }
      ],
      "name": "batchRegisterVoters",
      "outputs": [],
      "stateMutability": "nonpayable",
      "type": "function"
    },
    {
      "inputs": [
        {
          "internalType": "uint256",
          "name": "_cnic",
          "type": "uint256"
        },
        {
          "internalType": "bytes32",
          "name": "_currentPasswordHash",
          "type": "bytes32"
        },
        {
          "internalType": "string",
          "name": "_newPassword",
          "type": "string"
        }
      ],
      "name": "changeVoterPassword",
      "outputs": [],
      "stateMutability": "nonpayable",
      "type": "function"
    },
    {
      "inputs": [],
      "name": "geoContract",
      "outputs": [
        {
          "internalType": "contract GeographicManagement",
          "name": "",
          "type": "address"
        }
      ],
      "stateMutability": "view",
      "type": "function"
    },
    {
      "inputs": [],
      "name": "getAllRegisteredCnics",
      "outputs": [
        {
          "internalType": "uint256[]",
          "name": "",
          "type": "uint256[]"
        }
      ],
      "stateMutability": "view",
      "type": "function"
    },
    {
      "inputs": [
        {
          "internalType": "uint256",
          "name": "_cnic",
          "type": "uint256"
        }
      ],
      "name": "getVoterConstituency",
      "outputs": [
        {
          "internalType": "string",
          "name": "province",
          "type": "string"
        },
        {
          "internalType": "string",
          "name": "constituency",
          "type": "string"
        }
      ],
      "stateMutability": "view",
      "type": "function"
    },
    {
      "inputs": [],
      "name": "getVoterCount",
      "outputs": [
        {
          "internalType": "uint256",
          "name": "",
          "type": "uint256"
        }
      ],
      "stateMutability": "view",
      "type": "function"
    },
    {
      "inputs": [
        {
          "internalType": "uint256",
          "name": "_cnic",
          "type": "uint256"
        }
      ],
      "name": "getVoterSecretKeyHash",
      "outputs": [
        {
          "internalType": "bytes32",
          "name": "",
          "type": "bytes32"
        }
      ],
      "stateMutability": "view",
      "type": "function"
    },
    {
      "inputs": [
        {
          "internalType": "uint256",
          "name": "",
          "type": "uint256"
        }
      ],
      "name": "isVoterCnicRegistered",
      "outputs": [
        {
          "internalType": "bool",
          "name": "",
          "type": "bool"
        }
      ],
      "stateMutability": "view",
      "type": "function"
    },
    {
      "inputs": [
        {
          "internalType": "uint256",
          "name": "_cnic",
          "type": "uint256"
        }
      ],
      "name": "markAsVoted",
      "outputs": [],
      "stateMutability": "nonpayable",
      "type": "function"
    },
    {
      "inputs": [
        {
          "internalType": "uint256",
          "name": "_cnic",
          "type": "uint256"
        },
        {
          "internalType": "string",
          "name": "_name",
          "type": "string"
        },
        {
          "internalType": "string",
          "name": "_province",
          "type": "string"
        },
        {
          "internalType": "string",
          "name": "_constituency",
          "type": "string"
        },
        {
          "internalType": "string",
          "name": "_password",
          "type": "string"
        }
      ],
      "name": "registerVoter",
      "outputs": [],
      "stateMutability": "nonpayable",
      "type": "function"
    },
    {
      "inputs": [
        {
          "internalType": "uint256",
          "name": "_cnic",
          "type": "uint256"
        }
      ],
      "name": "removeVoter",
      "outputs": [],
      "stateMutability": "nonpayable",
      "type": "function"
    },
    {
      "inputs": [],
      "name": "resetAllVotersForNewElection",
      "outputs": [
        {
          "internalType": "uint256",
          "name": "",
          "type": "uint256"
        }
      ],
      "stateMutability": "nonpayable",
      "type": "function"
    },
    {
      "inputs": [
        {
          "internalType": "uint256",
          "name": "_cnic",
          "type": "uint256"
        }
      ],
      "name": "resetVoterForNewElection",
      "outputs": [],
      "stateMutability": "nonpayable",
      "type": "function"
    },
    {
      "inputs": [
        {
          "internalType": "uint256",
          "name": "_cnic",
          "type": "uint256"
        },
        {
          "internalType": "bytes32",
          "name": "_secretKeyHash",
          "type": "bytes32"
        }
      ],
      "name": "setSecretKeyHash",
      "outputs": [],
      "stateMutability": "nonpayable",
      "type": "function"
    },
    {
      "inputs": [
        {
          "internalType": "address",
          "name": "_votingProcess",
          "type": "address"
        }
      ],
      "name": "setVotingProcessContract",
      "outputs": [],
      "stateMutability": "nonpayable",
      "type": "function"
    },
    {
      "inputs": [
        {
          "internalType": "uint256",
          "name": "_cnic",
          "type": "uint256"
        },
        {
          "internalType": "bytes32",
          "name": "_passwordHash",
          "type": "bytes32"
        }
      ],
      "name": "verifyVoterCredentials",
      "outputs": [
        {
          "internalType": "bool",
          "name": "",
          "type": "bool"
        }
      ],
      "stateMutability": "view",
      "type": "function"
    },
    {
      "inputs": [
        {
          "internalType": "uint256",
          "name": "_cnic",
          "type": "uint256"
        }
      ],
      "name": "viewVoter",
      "outputs": [
        {
          "internalType": "uint256",
          "name": "cnic",
          "type": "uint256"
        },
        {
          "internalType": "string",
          "name": "name",
          "type": "string"
        },
        {
          "internalType": "string",
          "name": "province",
          "type": "string"
        },
        {
          "internalType": "string",
          "name": "constituency",
          "type": "string"
        },
        {
          "internalType": "bool",
          "name": "hasVoted",
          "type": "bool"
        },
        {
          "internalType": "bool",
          "name": "isRegistered",
          "type": "bool"
        }
      ],
      "stateMutability": "view",
      "type": "function"
    },
    {
      "inputs": [],
      "name": "voterCount",
      "outputs": [
        {
          "internalType": "uint256",
          "name": "",
          "type": "uint256"
        }
      ],
      "stateMutability": "view",
      "type": "function"
    },
    {
      "inputs": [
        {
          "internalType": "uint256",
          "name": "",
          "type": "uint256"
        }
      ],
      "name": "voters",
      "outputs": [
        {
          "internalType": "uint256",
          "name": "cnic",
          "type": "uint256"
        },
        {
          "internalType": "string",
          "name": "name",
          "type": "string"
        },
        {
          "internalType": "string",
          "name": "province",
          "type": "string"
        },
        {
          "internalType": "string",
          "name": "constituency",
          "type": "string"
        },
        {
          "internalType": "bytes32",
          "name": "passwordHash",
          "type": "bytes32"
        },
        {
          "internalType": "bool",
          "name": "isRegistered",
          "type": "bool"
        },
        {
          "internalType": "bool",
          "name": "hasVoted",
          "type": "bool"
        },
        {
          "internalType": "bytes32",
          "name": "secretKeyHash",
          "type": "bytes32"
        }
      ],
      "stateMutability": "view",
      "type": "function"
    },
    {
      "inputs": [],
      "name": "votingProcessContract",
      "outputs": [
        {
          "internalType": "address",
          "name": "",
          "type": "address"
        }
      ],
      "stateMutability": "view",
      "type": "function"
    }
  ],
  "bytecode": "0x60806040523480156200001157600080fd5b506040516200237f3803806200237f833981016040819052620000349162000083565b600080546001600160a01b039384166001600160a01b03199182161790915560028054929093169116179055620000bb565b80516001600160a01b03811681146200007e57600080fd5b919050565b600080604083850312156200009757600080fd5b620000a28362000066565b9150620000b26020840162000066565b90509250929050565b6122b480620000cb6000396000f3fe608060405234801561001057600080fd5b50600436106101375760003560e01c8063a4f3cea4116100b8578063c00c1f311161007c578063c00c1f31146102a2578063da58c7d9146102b5578063e7ba1f41146102dc578063f851a440146102f1578063fbbe076b14610304578063fe4f35d11461031757600080fd5b8063a4f3cea41461022e578063a92156ce14610236578063ad78702014610257578063b462d35a1461026a578063bf1d93371461028f57600080fd5b80636407c7f9116100ff5780636407c7f9146101cf5780636b89e1b4146101e257806387dc9c27146101f557806387ddc0ec1461020857806392b244061461021b57600080fd5b806311174a291461013c5780631ca9af9f1461015357806340ee89e91461018657806342169e48146101b15780635a5a04de146101ba575b600080fd5b6005545b6040519081526020015b60405180910390f35b610176610161366004611a57565b60046020526000908152604090205460ff1681565b604051901515815260200161014a565b600154610199906001600160a01b031681565b6040516001600160a01b03909116815260200161014a565b61014060055481565b6101cd6101c8366004611a70565b61032a565b005b6101cd6101dd366004611a57565b6103b8565b600254610199906001600160a01b031681565b6101cd610203366004611a92565b61045e565b6101cd610216366004611a57565b61051a565b610176610229366004611a70565b610649565b610140610681565b610249610244366004611a57565b6107a3565b60405161014a929190611b0b565b6101cd610265366004611cff565b610917565b61027d610278366004611a57565b610d52565b60405161014a96959493929190611dd1565b6101cd61029d366004611e2b565b610faf565b6101406102b0366004611a57565b61119f565b6102c86102c3366004611a57565b6111e6565b60405161014a989796959493929190611e7b565b6102e46113c9565b60405161014a9190611ee5565b600054610199906001600160a01b031681565b6101cd610312366004611f29565b6114a8565b6101cd610325366004611a57565b6118e2565b6000546001600160a01b031633148061034d57506001546001600160a01b031633145b6103725760405162461bcd60e51b815260040161036990611fd3565b60405180910390fd5b60008281526003602052604090206005015460ff166103a35760405162461bcd60e51b81526004016103699061201c565b60009182526003602052604090912060060155565b6000546001600160a01b031633146103e25760405162461bcd60e51b81526004016103699061204a565b60008181526003602052604090206005015460ff166104135760405162461bcd60e51b81526004016103699061201c565b60008181526003602052604080822060058101805461ff00191690556006018290555182917f45cf5429137c3d8b780929b71da473363528973f2836b8e90aeba326349f4c6591a250565b6000546001600160a01b031633146104885760405162461bcd60e51b81526004016103699061204a565b6001600160a01b0381166104d05760405162461bcd60e51b815260206004820152600f60248201526e496e76616c6964206164647265737360881b6044820152606401610369565b600180546001600160a01b0319166001600160a01b0383169081179091556040517f9bf46c2ad1dfe8e963ca79b8ae9fb6791c02f8e33d16688ff70bb750afb2478b90600090a250565b6000546001600160a01b031633146105445760405162461bcd60e51b81526004016103699061204a565b60008181526003602052604090206005015460ff1661059c5760405162461bcd60e51b8152602060048201526014602482015273159bdd195c88191bd95cc81b9bdd08195e1a5cdd60621b6044820152606401610369565b6000818152600460209081526040808320805460ff1916905560039091528120818155906105cd6001830182611a01565b6105db600283016000611a01565b6105e9600383016000611a01565b506000600482018190556005808301805461ffff19169055600690920181905581549190610616836120a2565b909155505060405181907f076de43b9328098d8db45065f3053a16ac9abdc197f58067f02735ab4dda80b390600090a250565b60008281526003602052604081206005015460ff16801561067a575060008381526003602052604090206004015482145b9392505050565b600080546001600160a01b031633146106ac5760405162461bcd60e51b81526004016103699061204a565b6000805b600654811015610765576000600682815481106106cf576106cf6120b9565b6000918252602080832090910154808352600390915260409091206005015490915060ff161561075257600081815260036020526040812060058101805461ff00191690556006015582610722816120cf565b6040519094508291507f45cf5429137c3d8b780929b71da473363528973f2836b8e90aeba326349f4c6590600090a25b508061075d816120cf565b9150506106b0565b50604080518281524260208201527f9f35cb603352d85146b0bab6127549d885c32af79dcf8a2bf386812b993ab971910160405180910390a1905090565b600081815260036020526040902060050154606090819060ff166107d95760405162461bcd60e51b81526004016103699061201c565b6000838152600360208190526040909120600281018054909291909101908290610802906120e8565b80601f016020809104026020016040519081016040528092919081815260200182805461082e906120e8565b801561087b5780601f106108505761010080835404028352916020019161087b565b820191906000526020600020905b81548152906001019060200180831161085e57829003601f168201915b5050505050915080805461088e906120e8565b80601f01602080910402602001604051908101604052809291908181526020018280546108ba906120e8565b80156109075780601f106108dc57610100808354040283529160200191610907565b820191906000526020600020905b8154815290600101906020018083116108ea57829003601f168201915b5050505050905091509150915091565b6000546001600160a01b031633146109415760405162461bcd60e51b81526004016103699061204a565b83518551148015610953575082518451145b8015610960575081518351145b801561096d575080518251145b6109b15760405162461bcd60e51b8152602060048201526015602482015274082e4e4c2f240d8cadccee8d040dad2e6dac2e8c6d605b1b6044820152606401610369565b60005b8551811015610d4a57600460008783815181106109d3576109d36120b9565b60209081029190910181015182528101919091526040016000205460ff16610d38576000828281518110610a0957610a096120b9565b6020026020010151604051602001610a219190612122565b604051602081830303815290604052805190602001209050604051806101000160405280888481518110610a5757610a576120b9565b60200260200101518152602001878481518110610a7657610a766120b9565b60200260200101518152602001868481518110610a9557610a956120b9565b60200260200101518152602001858481518110610ab457610ab46120b9565b602002602001015181526020018281526020016001151581526020016000151581526020016000801b81525060036000898581518110610af657610af66120b9565b60200260200101518152602001908152602001600020600082015181600001556020820151816001019081610b2b9190612189565b5060408201516002820190610b409082612189565b5060608201516003820190610b559082612189565b50608082015160048083019190915560a083015160058301805460c086015115156101000261ff00199315159390931661ffff199091161791909117905560e0909201516006909101558751600191906000908a9086908110610bba57610bba6120b9565b6020026020010151815260200190815260200160002060006101000a81548160ff02191690831515021790555060056000815480929190610bfa906120cf565b919050555060076000888481518110610c1557610c156120b9565b60209081029190910181015182528101919091526040016000205460ff16610cb1576006878381518110610c4b57610c4b6120b9565b60209081029190910181015182546001818101855560009485529284200155885190916007918a9086908110610c8357610c836120b9565b6020026020010151815260200190815260200160002060006101000a81548160ff0219169083151502179055505b868281518110610cc357610cc36120b9565b60200260200101517f852fc93fbbd1ad801210519579e98d31468343666623e535b3536408d1ca0c7e878481518110610cfe57610cfe6120b9565b6020026020010151868581518110610d1857610d186120b9565b6020026020010151604051610d2e929190611b0b565b60405180910390a2505b80610d42816120cf565b9150506109b4565b505050505050565b600060608060606000806000600360008981526020019081526020016000206040518061010001604052908160008201548152602001600182018054610d97906120e8565b80601f0160208091040260200160405190810160405280929190818152602001828054610dc3906120e8565b8015610e105780601f10610de557610100808354040283529160200191610e10565b820191906000526020600020905b815481529060010190602001808311610df357829003601f168201915b50505050508152602001600282018054610e29906120e8565b80601f0160208091040260200160405190810160405280929190818152602001828054610e55906120e8565b8015610ea25780601f10610e7757610100808354040283529160200191610ea2565b820191906000526020600020905b815481529060010190602001808311610e8557829003601f168201915b50505050508152602001600382018054610ebb906120e8565b80601f0160208091040260200160405190810160405280929190818152602001828054610ee7906120e8565b8015610f345780601f10610f0957610100808354040283529160200191610f34565b820191906000526020600020905b815481529060010190602001808311610f1757829003601f168201915b50505091835250506004820154602080830191909152600583015460ff8082161515604080860191909152610100909204161515606080850191909152600690940154608090930192909252835190840151918401519284015160c085015160a090950151919d929c50929a50919850919650945092505050565b6000546001600160a01b03163314610fd95760405162461bcd60e51b81526004016103699061204a565b60008381526003602052604090206005015460ff1661100a5760405162461bcd60e51b81526004016103699061201c565b600083815260036020526040902060040154821461106a5760405162461bcd60e51b815260206004820152601a60248201527f43757272656e742070617373776f726420696e636f72726563740000000000006044820152606401610369565b6006815110156110cf5760405162461bcd60e51b815260206004820152602a60248201527f4e65772070617373776f7264206d757374206265206174206c656173742036206044820152696368617261637465727360b01b6064820152608401610369565b6000816040516020016110e29190612122565b6040516020818303038152906040528051906020012090508281036111495760405162461bcd60e51b815260206004820152601e60248201527f4e65772070617373776f7264206d75737420626520646966666572656e7400006044820152606401610369565b600084815260036020526040908190206004018290555184907f3935cc082953189ea481b4c0aeab3c0ae31a2c8505d9affdb167e3e5d48d1a44906111919042815260200190565b60405180910390a250505050565b60008181526003602052604081206005015460ff166111d05760405162461bcd60e51b81526004016103699061201c565b5060009081526003602052604090206006015490565b60036020526000908152604090208054600182018054919291611208906120e8565b80601f0160208091040260200160405190810160405280929190818152602001828054611234906120e8565b80156112815780601f1061125657610100808354040283529160200191611281565b820191906000526020600020905b81548152906001019060200180831161126457829003601f168201915b505050505090806002018054611296906120e8565b80601f01602080910402602001604051908101604052809291908181526020018280546112c2906120e8565b801561130f5780601f106112e45761010080835404028352916020019161130f565b820191906000526020600020905b8154815290600101906020018083116112f257829003601f168201915b505050505090806003018054611324906120e8565b80601f0160208091040260200160405190810160405280929190818152602001828054611350906120e8565b801561139d5780601f106113725761010080835404028352916020019161139d565b820191906000526020600020905b81548152906001019060200180831161138057829003601f168201915b505050600484015460058501546006909501549394909360ff8083169450610100909204909116915088565b6060600060055467ffffffffffffffff8111156113e8576113e8611b39565b604051908082528060200260200182016040528015611411578160200160208202803683370190505b5090506000805b6006548110156114a057600060068281548110611437576114376120b9565b6000918252602080832090910154808352600390915260409091206005015490915060ff161561148d5780848481518110611474576114746120b9565b602090810291909101015282611489816120cf565b9350505b5080611498816120cf565b915050611418565b509092915050565b6000546001600160a01b031633146114d25760405162461bcd60e51b81526004016103699061204a565b60008581526004602052604090205460ff16156115315760405162461bcd60e51b815260206004820152601760248201527f434e494320616c726561647920726567697374657265640000000000000000006044820152606401610369565b600254604051633181494b60e01b81526001600160a01b0390911690633181494b90611561908690600401612249565b602060405180830381865afa15801561157e573d6000803e3d6000fd5b505050506040513d601f19601f820116820180604052508101906115a2919061225c565b6115ee5760405162461bcd60e51b815260206004820152601760248201527f50726f76696e636520646f6573206e6f742065786973740000000000000000006044820152606401610369565b6002546040516332a80b6160e11b81526001600160a01b039091169063655016c2906116209086908690600401611b0b565b602060405180830381865afa15801561163d573d6000803e3d6000fd5b505050506040513d601f19601f82011682018060405250810190611661919061225c565b6116ad5760405162461bcd60e51b815260206004820152601b60248201527f436f6e7374697475656e637920646f6573206e6f7420657869737400000000006044820152606401610369565b60068151101561170e5760405162461bcd60e51b815260206004820152602660248201527f50617373776f7264206d757374206265206174206c656173742036206368617260448201526561637465727360d01b6064820152608401610369565b6000816040516020016117219190612122565b60408051601f198184030181528282528051602091820120610100840183528984528382018981528484018990526060850188905260808501829052600160a08601819052600060c0870181905260e087018190528c8152600390945293909220845181559151909450909182019061179a9082612189565b50604082015160028201906117af9082612189565b50606082015160038201906117c49082612189565b50608082015160048083019190915560a08301516005808401805460c087015115156101000261ff00199415159490941661ffff19909116179290921790915560e090930151600690920191909155600088815260209190915260408120805460ff191660011790558154919061183a836120cf565b909155505060008681526007602052604090205460ff166118a0576006805460018181019092557ff652222313e28459528d920b65115c16c04f3efc82aaedc97be59f3f377c0d3f018790556000878152600760205260409020805460ff191690911790555b857f852fc93fbbd1ad801210519579e98d31468343666623e535b3536408d1ca0c7e86856040516118d2929190611b0b565b60405180910390a2505050505050565b6000546001600160a01b031633148061190557506001546001600160a01b031633145b6119215760405162461bcd60e51b815260040161036990611fd3565b60008181526003602052604090206005015460ff166119525760405162461bcd60e51b81526004016103699061201c565b600081815260036020526040902060050154610100900460ff16156119b95760405162461bcd60e51b815260206004820152601760248201527f416c7265616479206d61726b656420617320766f7465640000000000000000006044820152606401610369565b600081815260036020526040808220600501805461ff0019166101001790555182917f9fa91805a6a475fbea5abbeae68ffbc112d6dcc10cb38e6789f6e97da4321d1391a250565b508054611a0d906120e8565b6000825580601f10611a1d575050565b601f016020900490600052602060002090810190611a3b9190611a3e565b50565b5b80821115611a535760008155600101611a3f565b5090565b600060208284031215611a6957600080fd5b5035919050565b60008060408385031215611a8357600080fd5b50508035926020909101359150565b600060208284031215611aa457600080fd5b81356001600160a01b038116811461067a57600080fd5b60005b83811015611ad6578181015183820152602001611abe565b50506000910152565b60008151808452611af7816020860160208601611abb565b601f01601f19169290920160200192915050565b604081526000611b1e6040830185611adf565b8281036020840152611b308185611adf565b95945050505050565b634e487b7160e01b600052604160045260246000fd5b604051601f8201601f1916810167ffffffffffffffff81118282101715611b7857611b78611b39565b604052919050565b600067ffffffffffffffff821115611b9a57611b9a611b39565b5060051b60200190565b600082601f830112611bb557600080fd5b81356020611bca611bc583611b80565b611b4f565b82815260059290921b84018101918181019086841115611be957600080fd5b8286015b84811015611c045780358352918301918301611bed565b509695505050505050565b600082601f830112611c2057600080fd5b813567ffffffffffffffff811115611c3a57611c3a611b39565b611c4d601f8201601f1916602001611b4f565b818152846020838601011115611c6257600080fd5b816020850160208301376000918101602001919091529392505050565b600082601f830112611c9057600080fd5b81356020611ca0611bc583611b80565b82815260059290921b84018101918181019086841115611cbf57600080fd5b8286015b84811015611c0457803567ffffffffffffffff811115611ce35760008081fd5b611cf18986838b0101611c0f565b845250918301918301611cc3565b600080600080600060a08688031215611d1757600080fd5b853567ffffffffffffffff80821115611d2f57600080fd5b611d3b89838a01611ba4565b96506020880135915080821115611d5157600080fd5b611d5d89838a01611c7f565b95506040880135915080821115611d7357600080fd5b611d7f89838a01611c7f565b94506060880135915080821115611d9557600080fd5b611da189838a01611c7f565b93506080880135915080821115611db757600080fd5b50611dc488828901611c7f565b9150509295509295909350565b86815260c060208201526000611dea60c0830188611adf565b8281036040840152611dfc8188611adf565b90508281036060840152611e108187611adf565b9415156080840152505090151560a090910152949350505050565b600080600060608486031215611e4057600080fd5b8335925060208401359150604084013567ffffffffffffffff811115611e6557600080fd5b611e7186828701611c0f565b9150509250925092565b60006101008a8352806020840152611e958184018b611adf565b90508281036040840152611ea9818a611adf565b90508281036060840152611ebd8189611adf565b6080840197909752505092151560a084015290151560c083015260e090910152949350505050565b6020808252825182820181905260009190848201906040850190845b81811015611f1d57835183529284019291840191600101611f01565b50909695505050505050565b600080600080600060a08688031215611f4157600080fd5b85359450602086013567ffffffffffffffff80821115611f6057600080fd5b611f6c89838a01611c0f565b95506040880135915080821115611f8257600080fd5b611f8e89838a01611c0f565b94506060880135915080821115611fa457600080fd5b611fb089838a01611c0f565b93506080880135915080821115611fc657600080fd5b50611dc488828901611c0f565b60208082526029908201527f4f6e6c792061646d696e206f7220566f74696e6750726f636573732063616e2060408201526863616c6c207468697360b81b606082015260800190565b602080825260149082015273159bdd195c881b9bdd081c9959da5cdd195c995960621b604082015260600190565b60208082526022908201527f4f6e6c792061646d696e2063616e20706572666f726d2074686973206163746960408201526137b760f11b606082015260800190565b634e487b7160e01b600052601160045260246000fd5b6000816120b1576120b161208c565b506000190190565b634e487b7160e01b600052603260045260246000fd5b6000600182016120e1576120e161208c565b5060010190565b600181811c908216806120fc57607f821691505b60208210810361211c57634e487b7160e01b600052602260045260246000fd5b50919050565b60008251612134818460208701611abb565b9190910192915050565b601f82111561218457600081815260208120601f850160051c810160208610156121655750805b601f850160051c820191505b81811015610d4a57828155600101612171565b505050565b815167ffffffffffffffff8111156121a3576121a3611b39565b6121b7816121b184546120e8565b8461213e565b602080601f8311600181146121ec57600084156121d45750858301515b600019600386901b1c1916600185901b178555610d4a565b600085815260208120601f198616915b8281101561221b578886015182559484019460019091019084016121fc565b50858210156122395787850151600019600388901b60f8161c191681555b5050505050600190811b01905550565b60208152600061067a6020830184611adf565b60006020828403121561226e57600080fd5b8151801515811461067a57600080fdfea264697066735822122036940313ad0bd331a0988a10457c9d1cafde17554e39d072c89689f7d532c43564736f6c63430008120033",
  "linkReferences": {},
  "deployedLinkReferences": {}
}