{
  "_format": "hh-sol-artifact-1",
  "contractName": "VotingProcess",
  "sourceName": "contracts/5_VotingProcess.sol",
  "abi": [
    {
      "inputs": [
        {
          "internalType": "address",
          "name": "_votingMachine",
          "type": "address"
        },
        {
          "internalType": "address",
          "name": "_voterContract",
          "type": "address"
        },
        {
          "internalType": "address",
          "name": "_candidateContract",
          "type": "address"
        }
      ],
      "stateMutability": "nonpayable",
      "type": "constructor"
    },
    {
      "anonymous": false,
      "inputs": [
        {
          "indexed": true,
          "internalType": "uint256",
          "name": "voterCnic",
          "type": "uint256"
        }
      ],
      "name": "SecretKeyRegistered",
      "type": "event"
    },
    {
      "anonymous": false,
      "inputs": [
        {
          "indexed": true,
          "internalType": "uint256",
          "name": "voterCnic",
          "type": "uint256"
        },
        {
          "indexed": false,
          "internalType": "bytes32",
          "name": "voteHash",
          "type": "bytes32"
        },
        {
          "indexed": false,
          "internalType": "uint256",
          "name": "timestamp",
          "type": "uint256"
        }
      ],
      "name": "VoteCast",
      "type": "event"
    },
    {
      "anonymous": false,
      "inputs": [
        {
          "indexed": false,
          "internalType": "uint256",
          "name": "endTime",
          "type": "uint256"
        }
      ],
      "name": "VotingEnded",
      "type": "event"
    },
    {
      "anonymous": false,
      "inputs": [
        {
          "indexed": false,
          "internalType": "uint256",
          "name": "startTime",
          "type": "uint256"
        },
        {
          "indexed": false,
          "internalType": "uint256",
          "name": "endTime",
          "type": "uint256"
        }
      ],
      "name": "VotingStarted",
      "type": "event"
    },
    {
      "inputs": [],
      "name": "admin",
      "outputs": [
        {
          "internalType": "address",
          "name": "",
          "type": "address"
        }
      ],
      "stateMutability": "view",
      "type": "function"
    },
    {
      "inputs": [],
      "name": "candidateContract",
      "outputs": [
        {
          "internalType": "contract CandidateManagement",
          "name": "",
          "type": "address"
        }
      ],
      "stateMutability": "view",
      "type": "function"
    },
    {
      "inputs": [
        {
          "internalType": "uint256",
          "name": "_voterCnic",
          "type": "uint256"
        },
        {
          "internalType": "string",
          "name": "_password",
          "type": "string"
        },
        {
          "internalType": "uint256",
          "name": "_candidateId",
          "type": "uint256"
        },
        {
          "internalType": "string",
          "name": "_secretKey",
          "type": "string"
        }
      ],
      "name": "castVote",
      "outputs": [],
      "stateMutability": "nonpayable",
      "type": "function"
    },
    {
      "inputs": [
        {
          "internalType": "uint256",
          "name": "_voterCnic",
          "type": "uint256"
        }
      ],
      "name": "getVoterVote",
      "outputs": [
        {
          "internalType": "uint256",
          "name": "",
          "type": "uint256"
        }
      ],
      "stateMutability": "view",
      "type": "function"
    },
    {
      "inputs": [],
      "name": "getVotingStatus",
      "outputs": [
        {
          "internalType": "bool",
          "name": "active",
          "type": "bool"
        },
        {
          "internalType": "uint256",
          "name": "startTime",
          "type": "uint256"
        },
        {
          "internalType": "uint256",
          "name": "endTime",
          "type": "uint256"
        },
        {
          "internalType": "uint256",
          "name": "currentTime",
          "type": "uint256"
        }
      ],
      "stateMutability": "view",
      "type": "function"
    },
    {
      "inputs": [
        {
          "internalType": "uint256",
          "name": "_voterCnic",
          "type": "uint256"
        },
        {
          "internalType": "string",
          "name": "_password",
          "type": "string"
        },
        {
          "internalType": "string",
          "name": "_secretKey",
          "type": "string"
        }
      ],
      "name": "registerSecretKey",
      "outputs": [],
      "stateMutability": "nonpayable",
      "type": "function"
    },
    {
      "inputs": [
        {
          "internalType": "uint256",
          "name": "_durationInHours",
          "type": "uint256"
        }
      ],
      "name": "startVoting",
      "outputs": [],
      "stateMutability": "nonpayable",
      "type": "function"
    },
    {
      "inputs": [],
      "name": "stopVoting",
      "outputs": [],
      "stateMutability": "nonpayable",
      "type": "function"
    },
    {
      "inputs": [
        {
          "internalType": "uint256",
          "name": "_voterCnic",
          "type": "uint256"
        },
        {
          "internalType": "string",
          "name": "_secretKey",
          "type": "string"
        }
      ],
      "name": "verifyMyVote",
      "outputs": [
        {
          "internalType": "uint256",
          "name": "candidateId",
          "type": "uint256"
        },
        {
          "internalType": "bool",
          "name": "verified",
          "type": "bool"
        }
      ],
      "stateMutability": "view",
      "type": "function"
    },
    {
      "inputs": [
        {
          "internalType": "uint256",
          "name": "",
          "type": "uint256"
        }
      ],
      "name": "voteHashes",
      "outputs": [
        {
          "internalType": "bytes32",
          "name": "",
          "type": "bytes32"
        }
      ],
      "stateMutability": "view",
      "type": "function"
    },
    {
      "inputs": [],
      "name": "voterContract",
      "outputs": [
        {
          "internalType": "contract VoterManagement",
          "name": "",
          "type": "address"
        }
      ],
      "stateMutability": "view",
      "type": "function"
    },
    {
      "inputs": [
        {
          "internalType": "uint256",
          "name": "",
          "type": "uint256"
        }
      ],
      "name": "votes",
      "outputs": [
        {
          "internalType": "uint256",
          "name": "",
          "type": "uint256"
        }
      ],
      "stateMutability": "view",
      "type": "function"
    },
    {
      "inputs": [],
      "name": "votingActive",
      "outputs": [
        {
          "internalType": "bool",
          "name": "",
          "type": "bool"
        }
      ],
      "stateMutability": "view",
      "type": "function"
    },
    {
      "inputs": [],
      "name": "votingEndTime",
      "outputs": [
        {
          "internalType": "uint256",
          "name": "",
          "type": "uint256"
        }
      ],
      "stateMutability": "view",
      "type": "function"
    },
    {
      "inputs": [],
      "name": "votingStartTime",
      "outputs": [
        {
          "internalType": "uint256",
          "name": "",
          "type": "uint256"
        }
      ],
      "stateMutability": "view",
      "type": "function"
    }
  ],
  "bytecode": "0x60806040523480156200001157600080fd5b50604051620016953803806200169583398101604081905262000034916200009d565b600080546001600160a01b039485166001600160a01b031991821617909155600180549385169390911692909217909155600280546001600160a81b03191691909216179055620000e7565b80516001600160a01b03811681146200009857600080fd5b919050565b600080600060608486031215620000b357600080fd5b620000be8462000080565b9250620000ce6020850162000080565b9150620000de6040850162000080565b90509250925092565b61159e80620000f76000396000f3fe608060405234801561001057600080fd5b50600436106100f55760003560e01c80636d812fd111610097578063e6610bc811610066578063e6610bc814610241578063e883cabf14610254578063f851a4401461027c578063fab2f86b1461028f57600080fd5b80636d812fd1146101c3578063870a5e93146101e3578063b4a3a162146101f6578063d654c6bc1461022157600080fd5b80633d2f5bda116100d35780633d2f5bda14610134578063408e272714610147578063581c281c1461016b5780635df81330146101a357600080fd5b8063153ba12e146100fa5780631ea736e01461010f5780632019a6081461012b575b600080fd5b61010d610108366004611092565b610297565b005b61011860045481565b6040519081526020015b60405180910390f35b61011860035481565b61010d610142366004611109565b6108d3565b60025461015b90600160a01b900460ff1681565b6040519015158152602001610122565b600254600354600454600160a01b90920460ff1691426040805194151585526020850193909352918301526060820152608001610122565b6101186101b1366004611109565b60066020526000908152604090205481565b6101186101d1366004611109565b60056020526000908152604090205481565b61010d6101f1366004611122565b610a1d565b600254610209906001600160a01b031681565b6040516001600160a01b039091168152602001610122565b61011861022f366004611109565b60009081526006602052604090205490565b600154610209906001600160a01b031681565b61026761026236600461118f565b610d9f565b60408051928352901515602083015201610122565b600054610209906001600160a01b031681565b61010d610f32565b600254600160a01b900460ff166102c95760405162461bcd60e51b81526004016102c0906111d6565b60405180910390fd5b60035442101561031b5760405162461bcd60e51b815260206004820152601a60248201527f566f74696e6720686173206e6f7420737461727465642079657400000000000060448201526064016102c0565b6004544211156103605760405162461bcd60e51b815260206004820152601060248201526f159bdd1a5b99c81a185cc8195b99195960821b60448201526064016102c0565b6000836040516020016103739190611228565b60408051808303601f19018152908290528051602090910120600154634959220360e11b835260048301889052602483018290529092506001600160a01b0316906392b2440690604401602060405180830381865afa1580156103da573d6000803e3d6000fd5b505050506040513d601f19601f820116820180604052508101906103fe9190611259565b6104465760405162461bcd60e51b8152602060048201526019602482015278496e76616c696420766f7465722063726564656e7469616c7360381b60448201526064016102c0565b600154604051635a3169ad60e11b8152600481018790526000916001600160a01b03169063b462d35a90602401600060405180830381865afa158015610490573d6000803e3d6000fd5b505050506040513d6000823e601f3d908101601f191682016040526104b891908101906112c8565b5094505050505080156104fd5760405162461bcd60e51b815260206004820152600d60248201526c105b1c9958591e481d9bdd1959609a1b60448201526064016102c0565b60015460405163c00c1f3160e01b8152600481018890526000916001600160a01b03169063c00c1f3190602401602060405180830381865afa158015610547573d6000803e3d6000fd5b505050506040513d601f19601f8201168201806040525081019061056b919061137a565b9050806105cd5760405162461bcd60e51b815260206004820152602a60248201527f536563726574206b6579206e6f7420726567697374657265642e2052656769736044820152693a32b9103334b939ba1760b11b60648201526084016102c0565b6000846040516020016105e09190611228565b60405160208183030381529060405280519060200120905080821461063c5760405162461bcd60e51b8152602060048201526012602482015271496e76616c696420736563726574206b657960701b60448201526064016102c0565b600154604051635490ab6760e11b8152600481018a905260009182916001600160a01b039091169063a92156ce90602401600060405180830381865afa15801561068a573d6000803e3d6000fd5b505050506040513d6000823e601f3d908101601f191682016040526106b29190810190611393565b60025460405163254a235560e01b8152600481018c905292945090925060009182916001600160a01b03169063254a235590602401600060405180830381865afa158015610704573d6000803e3d6000fd5b505050506040513d6000823e601f3d908101601f1916820160405261072c91908101906113ed565b50945094505050508380519060200120828051906020012014801561075e575082805190602001208180519060200120145b6107b55760405162461bcd60e51b815260206004820152602260248201527f43616e646964617465206e6f7420696e20796f757220636f6e7374697475656e604482015261637960f01b60648201526084016102c0565b60008c81526006602090815260408083208d9055516107dc918f918e918e914291016114ac565b60405160208183030381529060405280519060200120905080600560008f815260200190815260200160002081905550600160009054906101000a90046001600160a01b03166001600160a01b031663fe4f35d18e6040518263ffffffff1660e01b815260040161084f91815260200190565b600060405180830381600087803b15801561086957600080fd5b505af115801561087d573d6000803e3d6000fd5b505050508c7f2d5d5adff759341f1e2cc20cd5f911101d22fae5437742e48892ad7c1fd5316b82426040516108bc929190918252602082015260400190565b60405180910390a250505050505050505050505050565b6000546001600160a01b031633146108fd5760405162461bcd60e51b81526004016102c0906114e0565b600254600160a01b900460ff16156109575760405162461bcd60e51b815260206004820152601860248201527f566f74696e6720697320616c726561647920616374697665000000000000000060448201526064016102c0565b600081116109a75760405162461bcd60e51b815260206004820152601f60248201527f4475726174696f6e206d7573742062652067726561746572207468616e20300060448201526064016102c0565b426003556109b781610e10611538565b6109c19042611555565b60048190556002805460ff60a01b1916600160a01b1790556003546040517ff8c022056754dbacca05aff710dc315a2fa7699ae9309fda403cd1e55c11d40f92610a12928252602082015260400190565b60405180910390a150565b600254600160a01b900460ff16610a465760405162461bcd60e51b81526004016102c0906111d6565b600354421015610a985760405162461bcd60e51b815260206004820152601a60248201527f566f74696e6720686173206e6f7420737461727465642079657400000000000060448201526064016102c0565b600454421115610add5760405162461bcd60e51b815260206004820152601060248201526f159bdd1a5b99c81a185cc8195b99195960821b60448201526064016102c0565b600082604051602001610af09190611228565b60408051808303601f19018152908290528051602090910120600154634959220360e11b835260048301879052602483018290529092506001600160a01b0316906392b2440690604401602060405180830381865afa158015610b57573d6000803e3d6000fd5b505050506040513d601f19601f82011682018060405250810190610b7b9190611259565b610bc35760405162461bcd60e51b8152602060048201526019602482015278496e76616c696420766f7465722063726564656e7469616c7360381b60448201526064016102c0565b600154604051635a3169ad60e11b8152600481018690526000916001600160a01b03169063b462d35a90602401600060405180830381865afa158015610c0d573d6000803e3d6000fd5b505050506040513d6000823e601f3d908101601f19168201604052610c3591908101906112c8565b509450505050508015610c7a5760405162461bcd60e51b815260206004820152600d60248201526c105b1c9958591e481d9bdd1959609a1b60448201526064016102c0565b600683511015610cdd5760405162461bcd60e51b815260206004820152602860248201527f536563726574206b6579206d757374206265206174206c656173742036206368604482015267617261637465727360c01b60648201526084016102c0565b600083604051602001610cf09190611228565b60408051808303601f19018152908290528051602090910120600154632d2d026f60e11b835260048301899052602483018290529092506001600160a01b031690635a5a04de90604401600060405180830381600087803b158015610d5457600080fd5b505af1158015610d68573d6000803e3d6000fd5b50506040518892507fa8a4f51b404cd8b56788ebd9669ad63c633324ce0d5e06e66035946f26e069009150600090a2505050505050565b600154604051635a3169ad60e11b815260048101849052600091829182916001600160a01b03169063b462d35a90602401600060405180830381865afa158015610ded573d6000803e3d6000fd5b505050506040513d6000823e601f3d908101601f19168201604052610e1591908101906112c8565b5094505050505080610e615760405162461bcd60e51b8152602060048201526015602482015274165bdd481a185d995b89dd081d9bdd1959081e595d605a1b60448201526064016102c0565b60015460405163c00c1f3160e01b8152600481018790526000916001600160a01b03169063c00c1f3190602401602060405180830381865afa158015610eab573d6000803e3d6000fd5b505050506040513d601f19601f82011682018060405250810190610ecf919061137a565b9050600085604051602001610ee49190611228565b604051602081830303815290604052805190602001209050808203610f2057505050600084815260066020526040902054915060019050610f2b565b600080945094505050505b9250929050565b6000546001600160a01b03163314610f5c5760405162461bcd60e51b81526004016102c0906114e0565b600254600160a01b900460ff16610f855760405162461bcd60e51b81526004016102c0906111d6565b6002805460ff60a01b191690554260048190556040519081527f81eb7415440ff8e6c8e92606fd3b0e5e6a5c99ea90cdb63b41aec54e897312b39060200160405180910390a1565b634e487b7160e01b600052604160045260246000fd5b604051601f8201601f1916810167ffffffffffffffff8111828210171561100c5761100c610fcd565b604052919050565b600067ffffffffffffffff82111561102e5761102e610fcd565b50601f01601f191660200190565b600082601f83011261104d57600080fd5b813561106061105b82611014565b610fe3565b81815284602083860101111561107557600080fd5b816020850160208301376000918101602001919091529392505050565b600080600080608085870312156110a857600080fd5b84359350602085013567ffffffffffffffff808211156110c757600080fd5b6110d38883890161103c565b94506040870135935060608701359150808211156110f057600080fd5b506110fd8782880161103c565b91505092959194509250565b60006020828403121561111b57600080fd5b5035919050565b60008060006060848603121561113757600080fd5b83359250602084013567ffffffffffffffff8082111561115657600080fd5b6111628783880161103c565b9350604086013591508082111561117857600080fd5b506111858682870161103c565b9150509250925092565b600080604083850312156111a257600080fd5b82359150602083013567ffffffffffffffff8111156111c057600080fd5b6111cc8582860161103c565b9150509250929050565b602080825260149082015273566f74696e67206973206e6f742061637469766560601b604082015260600190565b60005b8381101561121f578181015183820152602001611207565b50506000910152565b6000825161123a818460208701611204565b9190910192915050565b8051801515811461125457600080fd5b919050565b60006020828403121561126b57600080fd5b61127482611244565b9392505050565b600082601f83011261128c57600080fd5b815161129a61105b82611014565b8181528460208386010111156112af57600080fd5b6112c0826020830160208701611204565b949350505050565b60008060008060008060c087890312156112e157600080fd5b86519550602087015167ffffffffffffffff8082111561130057600080fd5b61130c8a838b0161127b565b9650604089015191508082111561132257600080fd5b61132e8a838b0161127b565b9550606089015191508082111561134457600080fd5b5061135189828a0161127b565b93505061136060808801611244565b915061136e60a08801611244565b90509295509295509295565b60006020828403121561138c57600080fd5b5051919050565b600080604083850312156113a657600080fd5b825167ffffffffffffffff808211156113be57600080fd5b6113ca8683870161127b565b935060208501519150808211156113e057600080fd5b506111cc8582860161127b565b60008060008060008060c0878903121561140657600080fd5b8651955060208701519450604087015167ffffffffffffffff8082111561142c57600080fd5b6114388a838b0161127b565b9550606089015191508082111561144e57600080fd5b61145a8a838b0161127b565b9450608089015191508082111561147057600080fd5b61147c8a838b0161127b565b935060a089015191508082111561149257600080fd5b5061149f89828a0161127b565b9150509295509295509295565b848152836020820152600083516114ca816040850160208801611204565b6040920191820192909252606001949350505050565b60208082526022908201527f4f6e6c792061646d696e2063616e20706572666f726d2074686973206163746960408201526137b760f11b606082015260800190565b634e487b7160e01b600052601160045260246000fd5b808202811582820484141761154f5761154f611522565b92915050565b8082018082111561154f5761154f61152256fea2646970667358221220ae913ebe0982a1bef83c14d948dc3f78e8954164fa9af4e64d463ed2f9fcb64e64736f6c63430008120033",
  "linkReferences": {},
  "deployedLinkReferences": {}
}